:020000040000FA
:04000000FEEF3FF0E0
:1008000000486F6C612C204D756E646F210050495B
:1008100043313846343535300000026E02C001F0F5
:10082000010E011681500118FE0B0118816E02C0E5
:1008300001F0D8900132010E0116014681500118D5
:10084000FD0B0118816E02C001F0D8900132D890E2
:100850000132010E01160146014681500118FB0BC1
:100860000118816E02C001F0D8900132D890013297
:10087000D8900132010E0116014601460146815011
:100880000118F70B0118816EEAEC04F01200929047
:100890009292929493909392939493968092340E22
:1008A000066EF20EE82EFED7062EFCD7030E0DECD8
:1008B00004F00D0E066EFC0EE82EFED7062EFCD7B9
:1008C000030E0DEC04F0420EE82EFED700D0030E0E
:1008D0000DEC04F0020E0DEC04F0280EBCEC04F05C
:1008E0000C0EBCEC04F0060EBCEC04F0DEEC04F0E4
:1008F000120047EC04F0000E056E000EA7EC04F0A9
:10090000010E046E91EC04F0000E056E010EA7ECD2
:1009100004F00E0E046E91EC04F08DEF04F0FEEF87
:100920003FF09AEF04F004C0F6FF0800F550CFEC5A
:1009300004F0042A04C0F6FF0800F5500009D8A40A
:10094000A4EF04F0A6EF04F093EF04F01200066E9B
:100950000650D8A4AEEF04F0B0EF04F0B5EF04F009
:100960000550800F076EB8EF04F00550C00F076EFA
:100970000750BCEC04F01200046E809004380F0B9A
:100980000DEC04F004500F0B0DEC04F0060E036E9A
:10099000300EE82EFED7032EFCD700D01200036ED7
:1009A000808003380F0B0DEC04F003500F0B0DEC9F
:1009B00004F01A0EE82EFED700D01200010EBCEC97
:1009C00004F0060E056E300EE82EFED7052EFCD77D
:1009D00000D012008084060EE82EFED700D080944E
:1009E000060EE82EFED700D01200000EF86E080E9C
:0809F000F76E000179EF04F03D
:047FFC00F5EF04F0A9
:020000040020DA
:08000000FFFFFFFFFFFFFFFF00
:020000040030CA
:0E00000020081F1EFF8381FF0FC00FE00F407E
:00000001FF
