:020000040000FA
:04000000FEEF3FF0E0
:10080000004D4943524F434F4E54524F4C41444F79
:0D0810005245530057454C434F4D450000E5
:10081E00720ED36EF19ECDEC04F0000E046E140E2B
:10082E00056E000E92EC04F0C00E6AEC04F0000EA1
:10083E00046E010E056E000E92EC04F0150E096E9C
:10084E004B0E086EBE0EE82EFED7082EFCD7092ED4
:10085E00FAD700D0FCEC04F00B0E096E260E086ED3
:10086E005E0EE82EFED7082EFCD7092EFAD71EEF05
:10087E0004F0FEEF3FF0026E02C001F0F00E011622
:10088E008C500F0B01108C6E8C808C8200008C9221
:10089E00030E016E980EE82EFED7012EFCD702C075
:1008AE0001F0013AF00E01168C500F0B01108C6EF8
:1008BE008C8200008C92080E016ECA0EE82EFED7B6
:1008CE00012EFCD71200026E02C001F0F00E0116CE
:1008DE008C500F0B01108C6E8C908C8200008C92C1
:1008EE00030E016E980EE82EFED7012EFCD702C025
:1008FE0001F0013AF00E01168C500F0B01108C6EA8
:10090E008C8200008C92080E016ECA0EE82EFED765
:10091E00012EFCD71200066E020E066099EF04F04F
:10092E009BEF04F0A4EF04F004500F0B8009076E48
:10093E0007506AEC04F0ABEF04F004500F0BC00943
:10094E00076E07506AEC04F005C003F0E6EC04F005
:10095E001200000EF66E0A0EF76E000EF86E00EE26
:10096E0010F010EE05F00900F5CFEEFFE550E15066
:10097E00FAE10F6A0E6A0D6A0C6A0B6A0A6A000EB9
:10098E00F86E080EF76E00010FEF04F0956A270E51
:10099E00036EF50EE82EFED7032EFCD70000020ED6
:1009AE006AEC04F0280E6AEC04F0010E6AEC04F016
:1009BE000C0E6AEC04F0060E6AEC04F01200EFEF77
:1009CE0004F003C0F6FF0800F55042EC04F0032AD1
:1009DE0003C0F6FF0800F5500009D8A4F9EF04F0A3
:1009EE00FBEF04F0E8EF04F01200010E6AEC04F0E5
:0709FE00120032303231001B
:047FFC00B0EF04F0EE
:020000040020DA
:08000000FFFFFFFFFFFFFFFF00
:020000040030CA
:0E00000000091F1EFF0181FF0FC00FE00F401F
:00000001FF
