:020000040000FA
:04000000FEEF3FF0E0
:100800000042757363616E646F2E2E2E0047505345
:10081000204750524D4300244750524D43004C6FE7
:100820006E3A004C61743A002720002C00DF000073
:10083000720ED36EF6EC0AF0000E056E0D0E066E0B
:100840000650D8A4080E076E000E3EEC0AF0150EF6
:100850001A6E4B0E196EBE0EE82EFED7192EFCD75F
:100860001A2EFAD700D00FEC0BF021EE8DF0090E06
:10087000DE6AE806FDE2000E0101996F000E986F36
:1008800021EE64F00A0EDE6AE806FDE2000E9B6FC0
:10089000000E9A6F976B000E016E010E026E000E35
:1008A000046E000E036E000E066E640E056EC0EC44
:1008B0000AF08D0E016E010E026E000E046E000E27
:1008C000036E000E066E0A0E056EC0EC0AF0980E5E
:1008D000016E010E026E000E046E000E036E000E1D
:1008E000066E020E056EC0EC0AF0640E016E010E7B
:1008F000026E000E046E000E036E000E066E0B0EEE
:10090000056EC0EC0AF09A0E016E010E026E000E2A
:10091000046E000E036E000E066E020E056EC0EC35
:100920000AF0000E016E010E026E000E046E640EDF
:10093000036E030E066EE80E056EDAEC06F0000993
:10094000D8B4A5EF04F0A7EF04F098EF05F0000E7F
:10095000076E010E086E170E096EF4EC07F00750D3
:100960000810D8B4B6EF04F0B8EF04F098EF05F033
:10097000000E0E6E010E0F6E8D0E106E010E116EBA
:10098000980E126E010E136E640E146E010E156E2B
:100990009A0E166E010E176EC0EC05F00009D8B461
:1009A000D4EF04F0D6EF04F098EF05F021EE6FF0ED
:1009B0000E0EDE6AE806FDE221EE7EF00E0EDE6A25
:1009C000E806FDE26F0E016E010E026E8D0E036EE3
:1009D000010E046E000E066E020E056E2EEC09F07E
:1009E0006F0E016E010E026E2D0E036E0350D8A421
:1009F000080E046E6FEC09F06F0E016E010E026EB0
:100A00008F0E036E010E046E000E066E050E056E4F
:100A1000A6EC08F06F0E016E010E026E280E036E3A
:100A20000350D8A4080E046E6FEC09F06F0E016E2F
:100A3000010E026E980E036E010E046E6FEC09F04B
:100A40007E0E016E010E026E640E036E010E046EC8
:100A5000000E066E030E056E2EEC09F07E0E016E82
:100A6000010E026E2D0E036E0350D8A4080E046E04
:100A70006FEC09F07E0E016E010E026E670E036EC2
:100A8000010E046E000E066E040E056EA6EC08F054
:100A90007E0E016E010E026E280E036E0350D8A466
:100AA000080E046E6FEC09F07E0E016E010E026EF0
:100AB0009A0E036E010E046E6FEC09F031EC0BF030
:100AC000000E056E230E066E0650D8A4080E076EA3
:100AD000000E3EEC0AF0050E056E6F0E066E010E5E
:100AE000076E000E3EEC0AF0000E056E1E0E066E3E
:100AF0000650D8A4080E076E010E3EEC0AF0050E53
:100B0000056E7E0E066E010E076E010E3EEC0AF0BB
:100B1000010E0101976F060E1A6E130E196EAE0EBE
:100B2000E82EFED7192EFCD71A2EFAD74BEF04F079
:100B300001019751D8B49FEF05F0A1EF05F0AFEF99
:100B400005F0020E1A6E040E196EBA0EE82EFED7CC
:100B5000192EFCD71A2EFAD700D04BEF04F031EC47
:100B60000BF0000E056E010E066E0650D8A4080E9E
:100B7000076E000E3EEC0AF08BEF05F0FEEF3FF043
:100B80000001C56BC66B0EC007F00FC008F0170E52
:100B9000096EF4EC07F007500810D8A4D2EF05F066
:100BA000D4EF05F0D7EF05F0000ED9EF06F0600E98
:100BB000016E026A0EC003F00FC004F0000E066E54
:100BC000630E056E2EEC09F00001C36B600E0C6E17
:100BD0002B0E0D6E5BEC08F00001C76FB5EF06F051
:100BE000C751D96EDA6A410EDE18D8B4FAEF05F0B3
:100BF000FDEF05F0010EFEEF05F0000EC66FACEF45
:100C000006F010501110D8B408EF06F00AEF06F005
:100C1000ACEF06F0C651D8B410EF06F012EF06F0B4
:100C2000ACEF06F010C001F011C002F0C7C003F035
:100C3000046A000E066E070E056E2EEC09F020EE1B
:100C400007F01050D9261150DA22DF6AACEF06F017
:100C500012501310D8B42FEF06F031EF06F0ACEFBE
:100C600006F0C651D8B437EF06F039EF06F0ACEF16
:100C700006F0C751D96EDA6A12C0E1FF13C0E2FF75
:100C8000DFCFE7FF20EE01F01250D9261350DA2211
:100C9000DF6AACEF06F014501510D8B452EF06F02E
:100CA00054EF06F0ACEF06F0C651D8B45AEF06F098
:100CB0005CEF06F0ACEF06F014C001F015C002F0D6
:100CC000C7C003F0046A000E066E080E056E2EEC17
:100CD00009F020EE08F01450D9261550DA22DF6A08
:100CE000ACEF06F016501710D8B479EF06F07BEF92
:100CF00006F0ACEF06F0C651D8B481EF06F083EFF2
:100D000006F0ACEF06F0C751D96EDA6A16C0E1FF03
:100D100017C0E2FFDFCFE7FF20EE01F01650D92623
:100D20001750DA22DF6AACEF06F0C551020AD8B4D8
:100D3000F0EF05F0010AD8B401EF06F0070AD8B4C5
:100D400028EF06F0010AD8B44BEF06F0030AD8B436
:100D500072EF06F0ACEF06F0000E0C6E2B0E0D6E6F
:100D60005BEC08F00001C76FC52BC751D8B4BBEFCF
:100D700006F0BDEF06F0C5EF06F0060EC565C3EF41
:100D800006F0C5EF06F095EF06F0C46BC651D8B477
:100D9000CCEF06F0CEEF06F0D8EF06F0050EC565F5
:100DA000D4EF06F0D6EF06F0D8EF06F0010EC46FD0
:100DB000C4511200000E0E6E000E0D6E0C6AAB9840
:100DC0000000AB88E6EF06F0AECF0BF09EBAEBEF7B
:100DD00006F0EDEF06F0E4EF06F0000E0A6E000EEE
:100DE000096E63EF07F09EAAF8EF06F0FAEF06F03F
:100DF0005DEF07F0AECF0FF0ABA201EF07F003EF0E
:100E000007F007EF07F0AB98AB8861EF07F00C50E5
:100E1000D8A40DEF07F00FEF07F026EF07F0240E30
:100E20000F18D8A416EF07F018EF07F026EF07F019
:100E3000010E0C6E0D500124D96E0E500220DA6E98
:100E40000FC0DFFF0D4A0E2A5DEF07F00C50D8B43B
:100E50002CEF07F02EEF07F05DEF07F00A0E0F18EA
:100E6000D8B435EF07F037EF07F048EF07F0FF0E83
:100E70000324076EFF0E0420086E07500D5C085017
:100E80000E58D8A046EF07F048EF07F052EF07F0F2
:100E90000D500124D96E0E500220DA6EDF6A010E69
:100EA0006FEF07F00D0E0F18D8B459EF07F05BEF96
:100EB00007F05DEF07F01AEF07F0420EE82EFED7BD
:100EC00000D0094A0A2A0550095C06500A58D8A0E1
:100ED0006CEF07F06EEF07F0F3EF06F0000E120074
:100EE0000406D8A00506042806E10528D8A47BEF4F
:100EF00007F07DEF07F089EF07F0000E026E000E9D
:100F0000016EF3EF07F0014A022A032A0406D8A073
:100F1000050601C0F6FF02C0F7FFF86A070EF76486
:100F200003D00800F55005D0F6CFE9FFF7CFEAFF70
:100F3000EF500009D8B49FEF07F0A1EF07F0D7EF0B
:100F400007F003C0F6FF080EF76E0800F550000921
:100F5000D8B4ADEF07F0AFEF07F0D7EF07F00450CC
:100F60000510D8B4B6EF07F0B8EF07F0D7EF07F0E9
:100F700003C0F6FF080EF76E0800F5CF06F001C0BB
:100F8000F6FF02C0F7FFF86A070EF76403D0080007
:100F9000F55005D0F6CFE9FFF7CFEAFFEF5006187E
:100FA000D8B4D5EF07F0D7EF07F083EF07F001C013
:100FB000F6FF02C0F7FFF86A070EF76403D00800D7
:100FC000F55005D0F6CFE9FFF7CFEAFFEF50066EF8
:100FD00003C0F6FF080EF76E0800F550065C016EC0
:100FE000026AD8A0020612000950D8B4FAEF07F03E
:100FF000FCEF07F056EF08F009C001F0DCEC0AF056
:1010000001C00AF002C00BF035EF08F007C001F094
:1010100008C002F009C003F00AC004F00BC005F0DC
:1010200070EC07F001500210D8A419EF08F01BEF84
:1010300008F021EF08F007C007F008C008F05AEFE9
:1010400008F0010E0724016E000E0820026E09C090
:10105000F6FF080EF76E0800F550036E046AEDEC1B
:1010600008F001C007F002C008F007500810D8B41B
:101070003CEF08F03EEF08F056EF08F007C0F6FF2F
:1010800008C0F7FFF86A070EF76403D00800F550B0
:1010900005D0F6CFE9FFF7CFEAFFEF500009D8A45B
:1010A00054EF08F056EF08F006EF08F0000E076E58
:1010B000000E086E12000C50D8A461EF08F063EF28
:1010C00008F070EF08F01BC00CF00C50D8A46BEFC8
:1010D00008F06DEF08F070EF08F0000EA5EF08F0D3
:1010E0000CC007F00DC008F0ABEC09F007500C265F
:1010F0000C50D96EDA6ADF50D8A481EF08F083EF84
:1011000008F088EF08F0000E1B6E1B50A5EF08F0EA
:101110000CC007F00DC008F0DDEC09F00C500724FE
:101120001B6E1B50D96EDA6ADF50D8B49AEF08F004
:101130009CEF08F0A3EF08F01B50D96EDA6ADF6A63
:101140001B2AA4EF08F01B6A0C50120001C007F024
:1011500002C008F0AEEF08F0074A082A07C0D9FF1E
:1011600008C0DAFFDF50D8A4B8EF08F0BAEF08F0F3
:10117000ACEF08F0C3EF08F0074A082A034A042A34
:101180000506D8A0060605500610D8B4CAEF08F028
:10119000CCEF08F0DEEF08F003C0D9FF04C0DAFF9F
:1011A00007C0E1FF08C0E2FFDFCFE7FFE750D8A4A8
:1011B000DCEF08F0DEEF08F0BCEF08F00550061099
:1011C000D8A4E5EF08F0E7EF08F0ECEF08F007C06F
:1011D000D9FF08C0DAFFDF6A120001C0F6FF02C0C3
:1011E000F7FFF86A070EF76403D00800F55005D042
:1011F000F6CFE9FFF7CFEAFFEF500318D8A403EFCB
:1012000009F005EF09F00BEF09F001C001F002C091
:1012100002F02DEF09F00150056E0250066E014AF2
:10122000022A05C0F6FF06C0F7FFF86A070EF7644A
:1012300003D00800F55005D0F6CFE9FFF7CFEAFF5D
:10124000EF500009D8A427EF09F029EF09F0EDEFDE
:1012500008F0000E016E000E026E120001C007F0D1
:1012600002C008F04FEF09F00506D8A0060603C03B
:10127000D9FF04C0DAFF034A042A07C0E1FF08C00F
:10128000E2FF074A082ADFCFE7FFE750D8A44BEF79
:1012900009F04DEF09F04FEF09F061EF09F005504B
:1012A0000610D8A456EF09F058EF09F034EF09F012
:1012B00061EF09F007C0D9FF08C0DAFFDF6A074A0B
:1012C000082A0506D8A00606052806E10628D8A49F
:1012D0006CEF09F06EEF09F05AEF09F01200000E02
:1012E000066E000E056E77EF09F0054A062A0550D6
:1012F0000124D96E06500220DA6EDF50D8A483EFA5
:1013000009F085EF09F075EF09F08BEF09F0054A58
:10131000062A034A042A03C0F6FF04C0F7FFF86A4E
:1013200005500124D96E06500220DA6E070EF764CC
:1013300003D00800F55005D0F6CFE9FFF7CFEAFF5C
:10134000EF50DF6EDF50D8A4A8EF09F0AAEF09F044
:1013500087EF09F01200000E0B6E000E0A6EB4EF5C
:1013600009F0072A0A4A0B2A0750D96EDA6ADF50B9
:10137000D8B4BDEF09F0BFEF09F0D8EF09F008C00D
:1013800001F00150D8A4080E026E0750D96EDA6A37
:10139000DF50096E0950036E046AEDEC08F001504D
:1013A0000210D8A4D6EF09F0D8EF09F0B1EF09F098
:1013B0000AC007F00BC008F01200000E0B6E000E02
:1013C0000A6EE6EF09F0072A0A4A0B2A0750D96E7F
:1013D000DA6ADF50D8B4EFEF09F0F1EF09F00AEF65
:1013E0000AF008C001F00150D8A4080E026E0750A0
:1013F000D96EDA6ADF50096E0950036E046AEDECAB
:1014000008F001500210D8B408EF0AF00AEF0AF011
:10141000E3EF09F00AC007F00BC008F0120025EF57
:101420000AF003C0F6FF04C0F7FFF86A070EF7647E
:1014300003D00800F55005D0F6CFE9FFF7CFEAFF5B
:10144000EF506CEC0AF0034A042A03C0F6FF04C014
:10145000F7FFF86A070EF76403D00800F55005D0CF
:10146000F6CFE9FFF7CFEAFFEF500009D8A43BEF32
:101470000AF03DEF0AF011EF0AF01200086E100EAC
:10148000056045EF0AF047EF0AF04CEF0AF005C09F
:1014900009F00A6A50EF0AF0000E0A6E0F0E096E8C
:1014A00009C005F00850D8A458EF0AF05AEF0AF026
:1014B0005FEF0AF00550800F0B6E62EF0AF00550E7
:1014C000C00F0B6E0B5096EC0AF006C003F007C07D
:1014D00004F00FEC0AF01200026E02C001F0F00EF0
:1014E00001168C500F0B01108C6E8C808C820000CA
:1014F0008C92030E016E980EE82EFED7012EFCD7BB
:1015000002C001F0013AF00E0116F00E01168C50E7
:101510000F0B01108C6E8C8200008C92080E016EF5
:10152000CA0EE82EFED7012EFCD71200026E02C0B2
:1015300001F0F00E01168C500F0B01108C6E8C9088
:101540008C8200008C92030E016E980EE82EFED75E
:10155000012EFCD702C001F0013AF00E0116F00E88
:1015600001168C500F0B01108C6E8C8200008C9237
:10157000080E016ECA0EE82EFED7012EFCD712000F
:1015800001C007F002C008F0CEEF0AF007C0D9FF93
:1015900008C0DAFF03C0DFFF074A082A0506D8A003
:1015A0000606052806E10628D8A4D9EF0AF0DBEFE5
:1015B0000AF0C6EF0AF0120001C003F0E1EF0AF0F2
:1015C000012A01C0F6FF080EF76E0800F550000969
:1015D000D8A4EDEF0AF0EFEF0AF0E0EF0AF00350C5
:1015E000015C016E026A01BE02061200956A270EB6
:1015F000036EF50EE82EFED7032EFCD70000020E78
:1016000096EC0AF0280E96EC0AF0010E96EC0AF021
:101610000C0E96EC0AF0060E96EC0AF01200948E70
:10162000080EB86E240EAC6E900EAB6ECF0EAF6E81
:101630001CEF0BF0AECF01F09EBA21EF0BF023EFC1
:101640000BF01AEF0BF09E9A120001EE9CF0370E91
:10165000EE6AE806FDE11B6A000EF86E000118EF65
:0A16600004F0010E96EC0AF01200EF
:047FFC0025EF0BF072
:020000040020DA
:08000000FFFFFFFFFFFFFFFF00
:020000040030CA
:0E00000000091F1EFF0181FF0FC00FE00F401F
:00000001FF
