:020000040000FA
:04000000FEEF3FF0E0
:100800000020202020202020202020202020202008
:100810002000253032752F253032752F32302530AB
:100820003275005265696E74656E74616E646F2E08
:100830002E2E004750533A2053696E2073656E6127
:100840006C00253032753A253032753A25303275D4
:100850000052544320646574656E69646F00496E8C
:10086000696369616E646F2E2E2E00483A257525E6
:100870002520543A257543005265696E74656E747F
:10088000616E646F0044485431313A204572726F92
:1008900072004573746163696F6E204D6574002446
:1008A0004750524D43004C6F6E3A004C61743A0011
:1008B0002720002C00DF000021EE6FF0090EDE6A19
:1008C000E806FDE2000E01019C6F000E9B6F21EE19
:1008D00064F00A0EDE6AE806FDE2000E9E6F000E6E
:1008E0009D6FA06B9F6BACEF04F0000E016E010ECC
:1008F000026E000E046E640E036E070E066ED00EBE
:10090000056E79EC07F00009D8B489EF04F08BEF9D
:1009100004F0A3EF04F0000E0E6E010E0F6E6F0ECA
:10092000106E010E116E9B0E126E010E136E640E90
:10093000146E010E156E9D0E166E010E176E94EC60
:1009400005F00101A06F820E196EDE0EE82EFED7B3
:10095000192EFCD701019F2B050E9F61B2EF04F009
:10096000B4EF04F0BCEF04F0A051D8B4BAEF04F037
:10097000BCEF04F075EF04F0000EFAEC10F0010E7D
:10098000FAEC10F00101A051D8B4C9EF04F0CBEF9C
:1009900004F07DEF05F021EE79F0100EDE6AE80636
:1009A000FDE221EE8AF0100EDE6AE806FDE2790E25
:1009B000016E010E026E6F0E036E010E046E000ECC
:1009C000066E020E056E7FEC0DF0790E016E010EC3
:1009D000026EB50E036E0350D8A4080E046E01EC2F
:1009E0000EF0790E016E010E026E710E036E010E95
:1009F000046E000E066E050E056EF7EC0CF0790E17
:100A0000016E010E026EB00E036E0350D8A4080EE4
:100A1000046E01EC0EF0790E016E010E026E9B0E5B
:100A2000036E010E046E01EC0EF08A0E016E010ED3
:100A3000026E640E036E010E046E000E066E030E4F
:100A4000056E7FEC0DF08A0E016E010E026EB50E82
:100A5000036E0350D8A4080E046E01EC0EF08A0E4B
:100A6000016E010E026E670E036E010E046E000E23
:100A7000066E050E056EF7EC0CF08A0E016E010E87
:100A8000026EB00E036E0350D8A4080E046E01EC83
:100A90000EF08A0E016E010E026E9D0E036E010EA7
:100AA000046E01EC0EF0000E056EAB0E066E0650E5
:100AB000D8A4080E076E000E3CEC0FF0040E056E75
:100AC000790E066E010E076E000E3CEC0FF0000E64
:100AD000056EA60E066E0650D8A4080E076E010E0F
:100AE0003CEC0FF0040E056E8A0E066E010E076ECA
:100AF000010E3CEC0FF093EF05F0000E056E330E87
:100B0000066E0650D8A4080E076E000E3CEC0FF0DF
:100B1000000E056E780E066E0650D8A4080E076EFD
:100B2000010E3CEC0FF012000001C56BC66B0EC04D
:100B300007F00FC008F09F0E096EF1EC09F00750A6
:100B40000810D8A4A6EF05F0A8EF05F0ABEF05F06C
:100B5000000EADEF06F0600E016E026A0EC003F0EB
:100B60000FC004F0000E066E630E056E7FEC0DF0F4
:100B70000001C36B600E0C6EB30E0D6E63EC0CF0D7
:100B80000001C76F89EF06F0C751D96EDA6A410ECE
:100B9000DE18D8B4CEEF05F0D1EF05F0010ED2EF9C
:100BA00005F0000EC66F80EF06F010501110D8B49B
:100BB000DCEF05F0DEEF05F080EF06F0C651D8B4AB
:100BC000E4EF05F0E6EF05F080EF06F010C001F06D
:100BD00011C002F0C7C003F0046A000E066E070ED3
:100BE000056E7FEC0DF020EE07F01050D926115065
:100BF000DA22DF6A80EF06F012501310D8B403EF48
:100C000006F005EF06F080EF06F0C651D8B40BEF02
:100C100006F00DEF06F080EF06F0C751D96EDA6AE4
:100C200012C0E1FF13C0E2FFDFCFE7FF20EE01F0CB
:100C30001250D9261350DA22DF6A80EF06F01450E2
:100C40001510D8B426EF06F028EF06F080EF06F076
:100C5000C651D8B42EEF06F030EF06F080EF06F064
:100C600014C001F015C002F0C7C003F0046A000E02
:100C7000066E080E056E7FEC0DF020EE08F01450A5
:100C8000D9261550DA22DF6A80EF06F016501710C9
:100C9000D8B44DEF06F04FEF06F080EF06F0C651E6
:100CA000D8B455EF06F057EF06F080EF06F0C751C5
:100CB000D96EDA6A16C0E1FF17C0E2FFDFCFE7FFA7
:100CC00020EE01F01650D9261750DA22DF6A80EFA5
:100CD00006F0C551020AD8B4C4EF05F0010AD8B431
:100CE000D5EF05F0070AD8B4FCEF05F0010AD8B437
:100CF0001FEF06F0030AD8B446EF06F080EF06F0C7
:100D0000000E0C6EB30E0D6E63EC0CF00001C76F9D
:100D1000C52BC751D8B48FEF06F091EF06F099EFCD
:100D200006F0060EC56597EF06F099EF06F069EF3D
:100D300006F0C46BC651D8B4A0EF06F0A2EF06F0DF
:100D4000ACEF06F0050EC565A8EF06F0AAEF06F0B9
:100D5000ACEF06F0010EC46FC45112002050D96EE2
:100D6000DA6ADFCFF6FF080EF76E0800F550250AA5
:100D7000D8A4BDEF06F0BFEF06F067EF07F02050F4
:100D8000D96EDA6ADF2A000E566E000E556E55C017
:100D90005AF057685868266AE8EF06F05A822050E1
:100DA000D96EDA6ADF2AE8EF06F0010E266EE8EF68
:100DB00006F02050D96EDA6ADFCFF6FF080EF76E24
:100DC0000800F550300AD8B4CEEF06F0D5EF06F0A3
:100DD0002650D8B4EEEF06F0F0EF06F0D9EF06F0AB
:100DE00020C001F021C002F011EC0CF001C055F060
:100DF00002C056F056BE01EF07F0FFEF06F006EF17
:100E000007F05A80556C561ED8B0562A2050D96E1D
:100E1000DA6ADF50276E27C0F6FF080EF76E08006B
:100E2000F550750AD8A417EF07F019EF07F042EF55
:100E300007F02150D96EDA6A020EDF26DF5CD96E28
:100E4000DA6ADECF22F0DECF23F02050D96EDA6AE4
:100E50002728DF6E36EF07F01FC017F022C018F00A
:100E600023C019F011EC09F078EF07F027C0F6FF66
:100E7000080EF76E0800F550750AD8B42CEF07F08D
:100E800042EF07F02050D96EDA6ADFCFF6FF080E86
:100E9000F76E0800F550250AD8A451EF07F053EF7C
:100EA00007F061EF07F02050D96EDA6ADF2A000EF2
:100EB000026E250E016E1FC003F06AEC0BF078EF96
:100EC00007F02050D96EDA6ADF2A78EF07F0205059
:100ED000D96EDA6ADFCFF6FF080EF76E0800F5501C
:100EE000016E026A1FC003F06AEC0BF061EF07F0BD
:100EF0001200000E0E6E000E0D6E0C6AAB98000014
:100F0000AB8885EF07F0AECF0BF09EBA8AEF07F003
:100F10008CEF07F083EF07F0000E0A6E000E096EEB
:100F200002EF08F09EAA97EF07F099EF07F0FCEFA9
:100F300007F0AECF0FF0ABA2A0EF07F0A2EF07F0E3
:100F4000A6EF07F0AB98AB8800EF08F00C50D8A4E0
:100F5000ACEF07F0AEEF07F0C5EF07F0240E0F1867
:100F6000D8A4B5EF07F0B7EF07F0C5EF07F0010E13
:100F70000C6E0D500124D96E0E500220DA6E0FC097
:100F8000DFFF0D4A0E2AFCEF07F00C50D8B4CBEF70
:100F900007F0CDEF07F0FCEF07F00A0E0F18D8B4FA
:100FA000D4EF07F0D6EF07F0E7EF07F0FF0E0324CA
:100FB000076EFF0E0420086E07500D5C08500E5897
:100FC000D8A0E5EF07F0E7EF07F0F1EF07F00D50DD
:100FD0000124D96E0E500220DA6EDF6A010E0EEF88
:100FE00008F00D0E0F18D8B4F8EF07F0FAEF07F07D
:100FF000FCEF07F0B9EF07F0420EE82EFED700D065
:10100000094A0A2A0550095C06500A58D8A00BEF75
:1010100008F00DEF08F092EF07F0000E1200040642
:10102000D8A00506042806E10528D8A41AEF08F080
:101030001CEF08F028EF08F0000E026E000E016EA3
:1010400092EF08F0014A022A032A0406D8A00506F6
:1010500001C0F6FF02C0F7FFF86A070EF76403D07D
:101060000800F55005D0F6CFE9FFF7CFEAFFEF50C3
:101070000009D8B43EEF08F040EF08F076EF08F032
:1010800003C0F6FF080EF76E0800F5500009D8B44B
:101090004CEF08F04EEF08F076EF08F00450051022
:1010A000D8B455EF08F057EF08F076EF08F003C01A
:1010B000F6FF080EF76E0800F5CF06F001C0F6FF48
:1010C00002C0F7FFF86A070EF76403D00800F55076
:1010D00005D0F6CFE9FFF7CFEAFFEF500618D8B4F6
:1010E00074EF08F076EF08F022EF08F001C0F6FF89
:1010F00002C0F7FFF86A070EF76403D00800F55046
:1011000005D0F6CFE9FFF7CFEAFFEF50066E03C038
:10111000F6FF080EF76E0800F550065C016E026AD5
:10112000D8A002061200720ED36E0F0EC16E070E0B
:10113000B46EA1EC10F0A00E0E6E860E0F6E010EB6
:10114000106E000E116E6AEC0FF0B9EC0AF0D1ECE3
:1011500010F019EC11F0000E056E920E066E06509E
:10116000D8A4080E076E000E3CEC0FF0000E056EC2
:101170005E0E066E0650D8A4080E076E010E3CECFB
:101180000FF0150E4A6E4B0E496EBE0EE82EFED7BE
:10119000492EFCD74A2EFAD700D0DBEF08F0C0EC7E
:1011A0000DF0F4EF08F05CEC04F0F4EF08F012EC52
:1011B0000BF0F4EF08F05B50496E4A6A4A50000A9F
:1011C000D8B4E5EF08F0F4EF08F04950000AD8B4BD
:1011D000CFEF08F0010AD8B4D3EF08F0030AD8B46F
:1011E000D7EF08F0F4EF08F0010E5B24016E026AFD
:1011F000000E0222000E046E030E036EDBEC0EF0F6
:1012000001505B6E330E4A6EBB0E496EE00EE82E47
:10121000FED7492EFCD74A2EFAD7DBEF08F0FEEFB7
:101220003FF0010E1A6E55C01BF056C01CF0000EA8
:101230001E6E1F0E1D6E0101D56B47EF09F01D06D6
:10124000D8A01E06B60E1D24D96E010E1E20DA6E21
:1012500018C001F019C002F0000E046E0A0E036EF1
:10126000DBEC0EF00150300FDF6E1A6A1B06D8A0BF
:101270001C0618C001F019C002F0000E046E0A0E20
:10128000036E3DEC0EF001C018F002C019F01D50C5
:101290001E10D8B44EEF09F050EF09F075EF09F0C9
:1012A00018501910D8A457EF09F059EF09F01FEFA3
:1012B00009F01A50D8A45FEF09F061EF09F01FEFB1
:1012C00009F01CBE6CEF09F01C5008E11B04D8A00B
:1012D0006CEF09F06EEF09F075EF09F05AB273EF99
:1012E00009F075EF09F01FEF09F017C00FF0B60E07
:1012F0001D24106E010E1E20116E1BC012F01CC0AA
:1013000013F0AEEC0CF0120021EC11F0000E036EA5
:10131000D00E026E12EC11F0000E036E000E026E83
:1013200012EC11F025EC11F0000E036ED10E026EDE
:1013300012EC11F00850D96EDA6A000E036E010E3D
:10134000026E52EC10F0025007EC11F0DF6E075005
:10135000D96EDA6A000E036E010E026E52EC10F0C6
:10136000025007EC11F0DF6E0650D96EDA6A000EFB
:10137000036E010E026E52EC10F0025007EC11F0F9
:10138000DF6E000E036E010E026E52EC10F009507B
:10139000D96EDA6A000E036E010E026E52EC10F086
:1013A000025007EC11F0DF6E0A50D96EDA6A000EB7
:1013B000036E010E026E52EC10F0025007EC11F0B9
:1013C000DF6E0B50D96EDA6A000E036E000E026EED
:1013D00052EC10F0025007EC11F0DF6E1DEC11F032
:1013E00012000950D8B4F7EF09F0F9EF09F053EF04
:1013F0000AF009C001F06DEC10F001C00AF002C063
:101400000BF032EF0AF007C001F008C002F009C08B
:1014100003F00AC004F00BC005F00FEC08F0015017
:101420000210D8A416EF0AF018EF0AF01EEF0AF027
:1014300007C007F008C008F057EF0AF0010E0724B4
:10144000016E000E0820026E09C0F6FF080EF76E4E
:101450000800F550036E046A3EEC0DF001C007F081
:1014600002C008F007500810D8B439EF0AF03BEF7B
:101470000AF053EF0AF007C0F6FF08C0F7FFF86A5A
:10148000070EF76403D00800F55005D0F6CFE9FF4A
:10149000F7CFEAFFEF500009D8A451EF0AF053EF5D
:1014A0000AF003EF0AF0000E076E000E086E12003D
:1014B000929080902F0E056EC00EE82EFED7052E5E
:1014C000FCD78080140EE82EFED7928080B06BEFA0
:1014D0000AF06DEF0AF0B7EF0AF080A072EF0AF0A1
:1014E00074EF0AF06DEF0AF080B079EF0AF07BEF4D
:1014F0000AF074EF0AF00E6A0E50090FD96EDA6A1C
:10150000EAEC0FF0DF6E0E2A040E0E648AEF0AF08A
:101510008CEF0AF07CEF0AF00D50056E066A0A5057
:1015200009C007F0086A0726000E08220B5007269C
:10153000000E08220C500726000E0822055007183E
:1015400007E106500818D8A4A8EF0AF0AAEF0AF09D
:10155000B7EF0AF00350D96EDA6A09C0DFFF045012
:10156000D96EDA6A0BC0DFFF010EB8EF0AF0000E89
:10157000120021EC11F0000E036ED00E026E12EC80
:1015800011F0000E036E000E026E12EC11F025EC4D
:1015900011F0000E036ED10E026E12EC11F0000E6F
:1015A000036E000E026E52EC10F002500E6E1DEC37
:1015B00011F00EAEDEEF0AF0E0EF0AF011EF0BF0E3
:1015C00019EC11F0000E056E510E066E0650D8A4EF
:1015D000080E076E000E3CEC0FF00B0E0D6E260E83
:1015E0000C6E5E0EE82EFED70C2EFCD70D2EFAD711
:1015F00021EC11F0000E036ED00E026E12EC11F011
:10160000000E036E000E026E12EC11F00EC00CF014
:101610007F0E0C160C50026E036A12EC11F01DECDA
:1016200011F01200486A420E066E430E076E440E19
:10163000086E450E096E460E0A6E470E0B6E84EC60
:1016400009F0000EFAEC10F0E40E2C6E120E2D6E66
:1016500045C02EF02F6A46C030F0316A47C032F0E4
:10166000336A87EC10F0000E056EE40E066E076A12
:10167000000E3CEC0FF0010EFAEC10F0E40E2C6EB4
:10168000420E2D6E42C02EF02F6A43C030F0316AF8
:1016900044C032F0336A87EC10F0000E056EE40EA1
:1016A000066E076A010E3CEC0FF00B0E416E260E23
:1016B000406E5E0EE82EFED7402EFCD7412EFAD7A4
:1016C000482A040E486467EF0BF069EF0BF013EF44
:1016D0000BF012000350D8B470EF0BF072EF0BF068
:1016E0007AEF0BF00350D8A478EF0BF07AEF0BF001
:1016F0007FEF0BF0015029EC11F0BEEF0BF003501F
:10170000D96EDA6A090ED926DE50DE10D8B48BEF16
:101710000BF08DEF0BF0A6EF0BF00350D96EDA6AE9
:10172000090ED9260350E16EE26A020EE126DE5070
:10173000E65CE650800A086EDE50800A0858D8B091
:10174000A4EF0BF0A6EF0BF0BEEF0BF00350D96E39
:10175000DA6A020ED926DF50046E0350D96EDA6AB7
:10176000DF500424D96EDA6A01C0DFFF0350D96E5E
:10177000DA6A020ED926DE2A000EDD221200000EE1
:10178000096E000E0A6E000E0B6E000E0C6E0550F8
:10179000061007100810D8B4D0EF0BF0D2EF0BF002
:1017A00008EF0CF0010E0D6EDCEF0BF0D890053653
:1017B0000636073608360D2A08AEE1EF0BF0E3EFE8
:1017C0000BF0D6EF0BF0D89009360A360B360C36F4
:1017D0000550015C06500258075003580850045841
:1017E000D8A0F5EF0BF0F7EF0BF000EF0CF0055081
:1017F000015E0650025A0750035A0850045A0980E5
:10180000D89008320732063205320D2EE3EF0BF086
:1018100009C001F00AC002F00BC003F00CC004F0D4
:101820001200000E076E000E066E0150D96EDA6AC5
:10183000DFCFF6FF080EF76E0800F5502A0AD8A48D
:1018400024EF0CF026EF0CF04BEF0CF00150D96EAA
:10185000DA6ADF2A0250D96EDA6A020EDF26DF5C0E
:10186000D96EDA6ADECF06F0DECF07F05EEF0CF05D
:101870000A0E0602F3CF03F0F4CF04F00702F35090
:10188000042605500324066E000E0420076E015046
:10189000D96EDA6ADF2A0150D96EDA6ADFCFF6FF35
:1018A000080EF76E0800F550D00F056E090E05649E
:1018B0005CEF0CF05EEF0CF038EF0CF006C001F0BE
:1018C00007C002F012000C50D8A469EF0CF06BEFC7
:1018D0000CF078EF0CF059C00CF00C50D8A473EF5A
:1018E0000CF075EF0CF078EF0CF0000EADEF0CF093
:1018F0000CC007F00DC008F077EC0EF007500C2676
:101900000C50D96EDA6ADF50D8A489EF0CF08BEF57
:101910000CF090EF0CF0000E596E5950ADEF0CF03A
:101920000CC007F00DC008F0A9EC0EF00C50072415
:10193000596E5950D96EDA6ADF50D8B4A2EF0CF064
:10194000A4EF0CF0ABEF0CF05950D96EDA6ADF6AF5
:10195000592AACEF0CF0596A0C5012005AA0B3EFA0
:101960000CF0B5EF0CF0BDEF0CF010C009F011C099
:101970000AF00FC00BF013EC10F013BEC4EF0CF024
:10198000C2EF0CF0C8EF0CF0000E136E000E126EDA
:10199000000E166E000E156ED8EF0CF0000E026EE3
:1019A000200E016E0FC003F06AEC0BF0154A162AE8
:1019B0001250155C1650800A146E1350800A145889
:1019C000D8A0E5EF0CF0E7EF0CF0CEEF0CF05AB03A
:1019D000ECEF0CF0EEEF0CF0F6EF0CF010C009F0AD
:1019E00011C00AF00FC00BF013EC10F0120001C090
:1019F00007F002C008F0FFEF0CF0074A082A07C002
:101A0000D9FF08C0DAFFDF50D8A409EF0DF00BEFC3
:101A10000DF0FDEF0CF014EF0DF0074A082A034A11
:101A2000042A0506D8A0060605500610D8B41BEFF8
:101A30000DF01DEF0DF02FEF0DF003C0D9FF04C026
:101A4000DAFF07C0E1FF08C0E2FFDFCFE7FFE750A2
:101A5000D8A42DEF0DF02FEF0DF00DEF0DF0055088
:101A60000610D8A436EF0DF038EF0DF03DEF0DF075
:101A700007C0D9FF08C0DAFFDF6A120001C0F6FF15
:101A800002C0F7FFF86A070EF76403D00800F550AC
:101A900005D0F6CFE9FFF7CFEAFFEF500318D8A43F
:101AA00054EF0DF056EF0DF05CEF0DF001C001F0BA
:101AB00002C002F07EEF0DF00150056E0250066E7E
:101AC000014A022A05C0F6FF06C0F7FFF86A070EB2
:101AD000F76403D00800F55005D0F6CFE9FFF7CF43
:101AE000EAFFEF500009D8A478EF0DF07AEF0DF07F
:101AF0003EEF0DF0000E016E000E026E120001C0EE
:101B000007F002C008F0A0EF0DF00506D8A0060609
:101B100003C0D9FF04C0DAFF034A042A07C0E1FF6B
:101B200008C0E2FF074A082ADFCFE7FFE750D8A442
:101B30009CEF0DF09EEF0DF0A0EF0DF0B2EF0DF069
:101B400005500610D8A4A7EF0DF0A9EF0DF085EF12
:101B50000DF0B2EF0DF007C0D9FF08C0DAFFDF6A61
:101B6000074A082A0506D8A00606052806E1062821
:101B7000D8A4BDEF0DF0BFEF0DF0ABEF0DF01200EC
:101B8000000EFAEC10F0010EFAEC10F0400E036EAD
:101B9000410E046E58EC0AF00009D8B4D2EF0DF0F3
:101BA000D4EF0DF0EAEF0DF0E40E2C6E6B0E2D6EFF
:101BB00040C02EF02F6A41C030F0316A87EC10F03F
:101BC000000E056EE40E066E076A000E3CEC0FF088
:101BD00000EF0EF0000E056E850E066E0650D8A4BE
:101BE000080E076E000E3CEC0FF0000E056E230E83
:101BF000066E0650D8A4080E076E010E3CEC0FF0DE
:101C00001200000E066E000E056E09EF0EF0054A7A
:101C1000062A05500124D96E06500220DA6EDF50E4
:101C2000D8A415EF0EF017EF0EF007EF0EF01DEF32
:101C30000EF0054A062A034A042A03C0F6FF04C030
:101C4000F7FFF86A05500124D96E06500220DA6EBB
:101C5000070EF76403D00800F55005D0F6CFE9FF72
:101C6000F7CFEAFFEF50DF6EDF50D8A43AEF0EF067
:101C70003CEF0EF019EF0EF01200000E066E000E93
:101C8000056E03500410D8B448EF0EF04AEF0EF082
:101C900072EF0EF0010E076E52EF0EF0D890033681
:101CA0000436072A04AE57EF0EF059EF0EF04EEF50
:101CB0000EF0D890053606360350015C04500258E9
:101CC000D8A065EF0EF067EF0EF06CEF0EF003504A
:101CD000015E0450025A0580D89004320332072E68
:101CE00059EF0EF005C001F006C002F01200000E20
:101CF0000B6E000E0A6E80EF0EF0072A0A4A0B2ABE
:101D00000750D96EDA6ADF50D8B489EF0EF08BEF46
:101D10000EF0A4EF0EF008C001F00150D8A4080E98
:101D2000026E0750D96EDA6ADF50096E0950036EF1
:101D3000046A3EEC0DF001500210D8A4A2EF0EF0A0
:101D4000A4EF0EF07DEF0EF00AC007F00BC008F014
:101D50001200000E0B6E000E0A6EB2EF0EF0072A94
:101D60000A4A0B2A0750D96EDA6ADF50D8B4BBEFA3
:101D70000EF0BDEF0EF0D6EF0EF008C001F00150EE
:101D8000D8A4080E026E0750D96EDA6ADF50096EC9
:101D90000950036E046A3EEC0DF001500210D8B4F5
:101DA000D4EF0EF0D6EF0EF0AFEF0EF00AC007F052
:101DB0000BC008F0120003500410D8B4E2EF0EF08C
:101DC000E4EF0EF008EF0FF0010E056EECEF0EF0F1
:101DD000D89003360436052A04AEF1EF0EF0F3EF87
:101DE0000EF0E8EF0EF00350015C04500258D8A04A
:101DF000FCEF0EF0FEEF0EF002EF0FF00350015E6D
:101E00000450025AD89004320332052EF3EF0EF03C
:101E100001C001F002C002F0120023EF0FF003C076
:101E2000F6FF04C0F7FFF86A070EF76403D0080056
:101E3000F55005D0F6CFE9FFF7CFEAFFEF5096EC6B
:101E40000FF0034A042A03C0F6FF04C0F7FFF86A44
:101E5000070EF76403D00800F55005D0F6CFE9FF70
:101E6000F7CFEAFFEF500009D8A439EF0FF03BEFAE
:101E70000FF00FEF0FF01200086E100E056043EF29
:101E80000FF045EF0FF04AEF0FF005C009F00A6AB6
:101E90004EEF0FF0000E0A6E0F0E096E09C005F02E
:101EA0000850D8A456EF0FF058EF0FF05DEF0FF089
:101EB0000550800F0B6E60EF0FF00550C00F0B6EDA
:101EC0000B50C0EC0FF006C003F007C004F00DEC9F
:101ED0000FF0120093809382280EC66EC56A000E22
:101EE000016E120E026E7A0E036E000E046E0EC0AC
:101EF00012F00FC013F010C014F011C015F0020E54
:101F0000D8901236133614361536E82E80EF0FF0BF
:101F100012C005F013C006F014C007F015C008F099
:101F2000BFEC0BF00104C86EC76A1200026E02C05B
:101F300001F0F00E01168C500F0B01108C6E8C808E
:101F40008C8200008C92030E016E980EE82EFED754
:101F5000012EFCD702C001F0013AF00E0116F00E7E
:101F600001168C500F0B01108C6E8C8200008C922D
:101F7000080E016ECA0EE82EFED7012EFCD7120005
:101F8000026E02C001F0F00E01168C500F0B011012
:101F90008C6E8C908C8200008C92030E016E980ED9
:101FA000E82EFED7012EFCD702C001F0013AF00E58
:101FB0000116F00E01168C500F0B01108C6E8C82E6
:101FC00000008C92080E016ECA0EE82EFED7012E7C
:101FD000FCD71200016A026A80A0F1EF0FF0F3EF64
:101FE0000FF0ECEF0FF0210EE82EFED70000D89096
:101FF000013680A0FEEF0FF000EF10F001EF10F0BF
:10200000018080B006EF10F008EF10F001EF10F043
:10201000022A070E02640FEF10F011EF10F0ECEF40
:102020000FF001501200000E0E6E000E0D6E22EF2A
:1020300010F00CC001F0026A0BC003F06AEC0BF068
:102040000D4A0E2A0D500924D96E0E500A20DA6E60
:10205000DF500C6E0C50D8A430EF10F032EF10F0BF
:1020600019EF10F0120029C02BF03FEF10F028C03C
:102070001FF02B0E206E2AC021F0AEEC06F02BC014
:10208000F6FF080EF76E0800F5500009D8A44BEFD4
:1020900010F04DEF10F037EF10F0000E296E000E2B
:1020A000286E1200E7EC10F0C586E7EC10F0C9CFFF
:1020B00004F0056AE7EC10F002500310D8B463EFA7
:1020C00010F066EF10F0C58A67EF10F0C59AC5886A
:1020D00004C002F005C003F0120001C003F072EF6B
:1020E00010F0012A01C0F6FF080EF76E0800F55047
:1020F0000009D8A47EEF10F080EF10F071EF10F01F
:102100000350015C016E026A01BE020612002E0E2F
:10211000346E2CC035F0000E386E000E376E000E97
:102120003F6E000E3E6E350E286E2DC029F0340E27
:102130002A6E33EC10F02C503724D96EDA6ADF6A3D
:102140001200956A270E036EF50EE82EFED7032EB9
:10215000FCD70000020EC0EC0FF0280EC0EC0FF010
:10216000010EC0EC0FF00C0EC0EC0FF0060EC0EC30
:102170000FF0120001EEA1F0350EEE6AE806FDE167
:1021800000EEC8F02D0EEE6AE806FDE100EE4BF021
:10219000110EEE6AE806FDE1000EF86E000193EF05
:1021A00008F0948E080EB86E240EAC6E900EAB6ED6
:1021B000CF0EAF6EDEEF10F0AECF01F09EBAE3EFC0
:1021C00010F0E5EF10F0DCEF10F09E9A1200C5CF92
:1021D00001F01F0E0116D8A4F0EF10F0F2EF10F08E
:1021E000E7EF10F0C7B4F7EF10F0F9EF10F0E7EFFA
:1021F00010F012000C6E000E056E010E066E0650F9
:10220000D8A4080E076E0C503CEC0FF01200026EC2
:1022100002C001F00F0E011602380F0B0A0DF35029
:1022200001241200E7EC10F002C0C9FFE7EC10F047
:102230001200010EC0EC0FF01200E7EC10F0C584A4
:102240001200E7EC10F0C5801200E7EC10F0C58238
:042250001200120066
:047FFC00BAEF10F0D8
:020000040020DA
:08000000FFFFFFFFFFFFFFFF00
:020000040030CA
:0E00000000091F1EFF0181FF0FC00FE00F401F
:00000001FF
