:020000040000FA
:0400000007EF00F016
:0A00080058827DED12F054EF11F064
:100800000046656368613A253032642F25303264D2
:100810002F32302530326400486F72613A20253023
:1008200032643A253032643A253032640042543A18
:10083000204573706572616E646F2E2E2E005265B6
:10084000696E74656E74616E646F2E2E2E00457332
:10085000746163696F6E204D6574656F0047505316
:100860003A2053696E206461746F730052544320C0
:10087000646574656E69646F00456E2065737065AC
:1008800072612E2E2E0044485431313A2045727246
:100890006F720042757363616E646F2E2E2E00536B
:1008A000697374656D61204F4646004750533A2086
:1008B0004572726F72004C6F6E3A25732573004C4F
:1008C00061743A2573257300483A20256425250074
:1008D000543A202564DF4300286E756C6C2900248F
:0908E0004750524D43002C00006A
:1008EA002150D96EDA6ADFCFF6FF080EF76E0800DC
:1008FA00F550250AD8A484EF04F086EF04F0A6EF99
:10090A0005F02150D96EDA6ADF2A000E516E000E08
:10091A00506E50C055F0526853682A6AAFEF04F01F
:10092A0055822150D96EDA6ADF2AAFEF04F0010E40
:10093A002A6EAFEF04F02150D96EDA6ADFCFF6FFE4
:10094A00080EF76E0800F550300AD8B495EF04F097
:10095A009CEF04F02A50D8B4B5EF04F0B7EF04F0D6
:10096A00A0EF04F021C001F022C002F049EC0EF021
:10097A0001C050F002C051F051BEC8EF04F0C6EFFA
:10098A0004F0CDEF04F05580506C511ED8B0512AB6
:10099A002150D96EDA6ADF50296E29C0F6FF080E97
:1009AA00F76E0800F550640AD8B4DEEF04F0E0EF01
:1009BA0004F0EEEF04F029C0F6FF080EF76E080007
:1009CA00F550690AD8A4ECEF04F0EEEF04F00AEF50
:1009DA0005F022C0D9FF23C0DAFF020EDF26DF5C52
:1009EA00D96EDA6ADECF25F0DECF26F02150D96E35
:1009FA00DA6A2928DF6E20C015F025C016F026C055
:100A0A0017F09BEC07F0B7EF05F02A6A2150D96E70
:100A1A00DA6ADFCFF6FF080EF76E0800F550730AA0
:100A2A00D8A41AEF05F01CEF05F024EF05F02150C9
:100A3A00D96EDA6ADF2A010E2A6E66EF05F02150B6
:100A4A00D96EDA6ADFCFF6FF080EF76E0800F550A6
:100A5A006C0AD8A433EF05F035EF05F066EF05F020
:100A6A002150D96EDA6ADF50246E010E242624C082
:100A7A00F6FF080EF76E0800F5506C0AD8A448EF86
:100A8A0005F04AEF05F066EF05F02150D96EDA6AF3
:100A9A00DF50246E020E242624C0F6FF080EF76EDD
:100AAA000800F550730AD8A45DEF05F05FEF05F072
:100ABA0066EF05F02150D96EDA6A030EDF2620EFC1
:100ACA0005F02A50D8B46CEF05F06EEF05F081EF0F
:100ADA0005F020C009F022C0D9FF23C0DAFF020EB8
:100AEA00DF26DF5CD96EDA6ADECF0AF0DECF0BF0E2
:100AFA004DEC08F0B7EF05F02150D96EDA6ADFCF76
:100B0A00F6FF080EF76E0800F550250AD8A490EFF4
:100B1A0005F092EF05F0A0EF05F02150D96EDA6AE0
:100B2A00DF2A000E026E250E016E20C003F093EC40
:100B3A000CF0B7EF05F02150D96EDA6ADF2AB7EF69
:100B4A0005F02150D96EDA6ADFCFF6FF080EF76E8C
:100B5A000800F550016E026A20C003F093EC0CF015
:100B6A00A0EF05F012000001C56BC66B0EC007F0BE
:100B7A000FC008F0DF0E096E05EC0BF007500810E5
:100B8A00D8A4CAEF05F0CCEF05F0CFEF05F0000EC0
:100B9A00D1EF06F0600E016E026A0EC003F00FC0BC
:100BAA0004F0000E066E630E056E6CEC0FF0000189
:100BBA00C36B600E0C6EE60E0D6E9BEC0EF0000120
:100BCA00C76FADEF06F0C751D96EDA6A410EDE186B
:100BDA00D8B4F2EF05F0F5EF05F0010EF6EF05F0E7
:100BEA00000EC66FA4EF06F010501110D8B400EF33
:100BFA0006F002EF06F0A4EF06F0C651D8B408EFEB
:100C0A0006F00AEF06F0A4EF06F010C001F011C0DA
:100C1A0002F0C7C003F0046A000E066E070E056EE6
:100C2A006CEC0FF020EE07F01050D9261150DA22A2
:100C3A00DF6AA4EF06F012501310D8B427EF06F0BB
:100C4A0029EF06F0A4EF06F0C651D8B42FEF06F04C
:100C5A0031EF06F0A4EF06F0C751D96EDA6A12C076
:100C6A00E1FF13C0E2FFDFCFE7FF20EE01F01250F1
:100C7A00D9261350DA22DF6AA4EF06F014501510B1
:100C8A00D8B44AEF06F04CEF06F0A4EF06F0C651CE
:100C9A00D8B452EF06F054EF06F0A4EF06F014C0F1
:100CAA0001F015C002F0C7C003F0046A000E066E18
:100CBA00080E056E6CEC0FF020EE08F01450D926E1
:100CCA001550DA22DF6AA4EF06F016501710D8B4CE
:100CDA0071EF06F073EF06F0A4EF06F0C651D8B430
:100CEA0079EF06F07BEF06F0A4EF06F0C751D96E54
:100CFA00DA6A16C0E1FF17C0E2FFDFCFE7FF20EE96
:100D0A0001F01650D9261750DA22DF6AA4EF06F04E
:100D1A00C551020AD8B4E8EF05F0010AD8B4F9EFD0
:100D2A0005F0070AD8B420EF06F0010AD8B443EF59
:100D3A0006F0030AD8B46AEF06F0A4EF06F0000E34
:100D4A000C6EE60E0D6E9BEC0EF00001C76FC52B04
:100D5A00C751D8B4B3EF06F0B5EF06F0BDEF06F011
:100D6A00060EC565BBEF06F0BDEF06F08DEF06F087
:100D7A00C46BC651D8B4C4EF06F0C6EF06F0D0EF84
:100D8A0006F0050EC565CCEF06F0CEEF06F0D0EF03
:100D9A0006F0010EC46FC451120021EE00F0630E7A
:100DAA00DE6AE806FDE221EE6FF0090EDE6AE80669
:100DBA00FDE2000E01017A6F000E796F21EE64F0F8
:100DCA000A0EDE6AE806FDE2000E7C6F000E7B6FFB
:100DDA00000E7CEC11F0010E7CEC11F0000E016E9D
:100DEA00010E026E000E046E640E036E010E066E94
:100DFA00F40E056EFCEC08F00009D8B407EF07F012
:100E0A0009EF07F084EF07F0000E076E010E086E77
:100E1A00DF0E096E05EC0BF007500810D8B418EF76
:100E2A0007F01AEF07F06CEF07F0000E0E6E010ED6
:100E3A000F6E6F0E106E010E116E790E126E010E8C
:100E4A00136E640E146E010E156E7B0E166E010E75
:100E5A00176EB8EC05F00009D8B436EF07F038EF92
:100E6A0007F06CEF07F0960E2F6E010E306EBF0E74
:100E7A00316E6F0E326E010E336E790E346E010EC4
:100E8A00356EC0EC11F0000E056E960E066E010E60
:100E9A00076E000E7DEC10F0960E2F6E010E306E6E
:100EAA00B60E316E640E326E010E336E7B0E346EE8
:100EBA00010E356EC0EC11F0000E056E960E066E30
:100ECA00010E076E010E7DEC10F09AEF07F0000E8E
:100EDA00056E5D0E066E0650D8A4080E076E000E4B
:100EEA007DEC10F0000E056E930E066E0650D8A427
:100EFA00080E076E010E7DEC10F09AEF07F0000E57
:100F0A00056EAB0E066E0650D8A4080E076E000ECC
:100F1A007DEC10F0000E056E3E0E066E0650D8A44B
:100F2A00080E076E010E7DEC10F01200010E1A6E0B
:100F3A0017BEA2EF07F0A5EF07F0010EA6EF07F024
:100F4A00000E1D6E50C01BF051C01CF01D50D8B4CD
:100F5A00B1EF07F0B3EF07F0CAEF07F01B06D8A00E
:100F6A001C061D50D8A4BCEF07F0BEEF07F0C4EF73
:100F7A0007F0000E196E2B0E186EC8EF07F0000E60
:100F8A00196E2D0E186E18C01DF0000E1F6E1F0E62
:100F9A001E6E0001E76BFEEF07F01E06D8A01F06C3
:100FAA001E50C80FD96EDA6A16C001F017C002F0D7
:100FBA00000E046E0A0E036EA0EC0DF001C007F0DD
:100FCA0002C008F031EC12F00750300FDF6E1A6AD7
:100FDA001B06D8A01C0616C001F017C002F0000EAE
:100FEA00046E0A0E036ED1EC0BF001C016F002C0BB
:100FFA0017F01FBE09EF08F01F5008E11E04D8A021
:10100A0009EF08F00BEF08F030EF08F01650171050
:10101A00D8A412EF08F014EF08F0D2EF07F01A5034
:10102A00D8A41AEF08F01CEF08F0D2EF07F01CBEA4
:10103A0027EF08F01C5008E11B04D8A027EF08F09E
:10104A0029EF08F030EF08F055B22EEF08F030EF34
:10105A0008F0D2EF07F01D50D8B436EF08F038EF99
:10106A0008F041EF08F01E06D8A01F061E50C80F50
:10107A00D96EDA6A1DC0DFFF15C00EF01E50C80F08
:10108A000F6E1BC010F01CC011F0E6EC0EF012003F
:10109A000AC012F00BC013F012501310D8A458EF64
:1010AA0008F05AEF08F060EF08F0D80E126E1250EE
:1010BA00D8A4080E136E000E156E000E146E68EF9B
:1010CA0008F0144A152A145012240C6E15501320D5
:1010DA000D6E0CC0F6FF0DC0F7FFF86A070EF76435
:1010EA0003D00800F55005D0F6CFE9FFF7CFEAFFA5
:1010FA00EF500009D8A484EF08F086EF08F066EFF5
:10110A0008F014C00EF015C00FF050C010F051C016
:10111A0011F055B093EF08F095EF08F0CCEF08F016
:10112A00A1EF08F0000E026E200E016E09C003F056
:10113A0093EC0CF0144A152A1050145C1550800ACE
:10114A000C6E1150800A0C58D8A0AEEF08F0B0EF20
:10115A0008F097EF08F0CCEF08F012C0F6FF13C0C2
:10116A00F7FFF86A070EF76403D00800F55005D0B8
:10117A00F6CFE9FFF7CFEAFFEF500C6E0C50016E85
:10118A00026A09C003F093EC0CF0124A132A0E0605
:10119A00D8A00F060E2806E10F28D8A4D7EF08F02A
:1011AA00D9EF08F0B2EF08F055A0DEEF08F0E0EF53
:1011BA0008F0FBEF08F0ECEF08F0000E026E200ECC
:1011CA00016E09C003F093EC0CF0144A152A105072
:1011DA00145C1550800A0C6E1150800A0C58D8A065
:1011EA00F9EF08F0FBEF08F0E2EF08F01200000E4A
:1011FA000E6E000E0D6E0C6AAB980000AB8808EFFD
:10120A0009F0AECF0BF09EBA0DEF09F00FEF09F01F
:10121A0006EF09F0000E0A6E000E096E85EF09F05E
:10122A009EAA1AEF09F01CEF09F07FEF09F0AECF82
:10123A000FF0ABA223EF09F025EF09F029EF09F02F
:10124A00AB98AB8883EF09F00C50D8A42FEF09F0C4
:10125A0031EF09F048EF09F0240E0F18D8A438EF3F
:10126A0009F03AEF09F048EF09F0010E0C6E0D5043
:10127A000124D96E0E500220DA6E0FC0DFFF0D4A2C
:10128A000E2A7FEF09F00C50D8B44EEF09F050EF58
:10129A0009F07FEF09F00A0E0F18D8B457EF09F0DA
:1012AA0059EF09F06AEF09F0FF0E0324076EFF0EEB
:1012BA000420086E07500D5C08500E58D8A068EF3D
:1012CA0009F06AEF09F074EF09F00D500124D96EA4
:1012DA000E500220DA6EDF6A010E91EF09F00D0E50
:1012EA000F18D8B47BEF09F07DEF09F07FEF09F012
:1012FA003CEF09F0420EE82EFED700D0094A0A2A2E
:10130A000550095C06500A58D8A08EEF09F090EFF4
:10131A0009F015EF09F0000E12000406D8A0050620
:10132A00042806E10528D8A49DEF09F09FEF09F0EB
:10133A00ABEF09F0000E026E000E016E15EF0AF017
:10134A00014A022A032A0406D8A0050601C0F6FFAC
:10135A0002C0F7FFF86A070EF76403D00800F550D9
:10136A0005D0F6CFE9FFF7CFEAFFEF500009D8B46E
:10137A00C1EF09F0C3EF09F0F9EF09F003C0F6FF76
:10138A00080EF76E0800F5500009D8B4CFEF09F03F
:10139A00D1EF09F0F9EF09F004500510D8B4D8EFED
:1013AA0009F0DAEF09F0F9EF09F003C0F6FF080EC9
:1013BA00F76E0800F5CF06F001C0F6FF02C0F7FF8E
:1013CA00F86A070EF76403D00800F55005D0F6CF87
:1013DA00E9FFF7CFEAFFEF500618D8B4F7EF09F0A4
:1013EA00F9EF09F0A5EF09F001C0F6FF02C0F7FF17
:1013FA00F86A070EF76403D00800F55005D0F6CF57
:10140A00E9FFF7CFEAFFEF50066E03C0F6FF080EBA
:10141A00F76E0800F550065C016E026AD8A0020653
:10142A001200486A496A4A6A4B6A4C6A4D6A000E57
:10143A00476E000E466E81EF0AF0480E066E490EA0
:10144A00076E4A0E086E4B0E096E4C0E0A6E4D0E52
:10145A000B6E98EC0AF0000E7CEC11F0960E2F6ED3
:10146A00010E306E010E316E4BC032F0336A4CC041
:10147A0034F0356A4DC036F0376AC0EC11F0000E10
:10148A00056E960E066E010E076E000E7DEC10F0CC
:10149A00010E7CEC11F0960E2F6E010E306E180EB6
:1014AA00316E48C032F0336A49C034F0356A4AC0F6
:1014BA0036F0376AC0EC11F0000E056E960E066E15
:1014CA00010E076E010E7DEC10F00B0E456E260E16
:1014DA00446E5E0EE82EFED7442EFCD7452EFAD770
:1014EA00464A472A5650D8B47DEF0AF07FEF0AF0F1
:1014FA0081EF0AF097EF0AF047BE8FEF0AF04750E4
:10150A0007E1050E465CD8B08DEF0AF08FEF0AF0BE
:10151A0097EF0AF05704D8B495EF0AF097EF0AF05C
:10152A0022EF0AF01200DFEC12F0000E036ED00E6A
:10153A00026ED0EC12F0000E036E000E026ED0ECBA
:10154A0012F0E3EC12F0000E036ED10E026ED0EC34
:10155A0012F00850D96EDA6A000E036E010E026E9E
:10156A00FCEC11F00250BEEC12F0DF6E0750D96E9F
:10157A00DA6A000E036E010E026EFCEC11F00250E4
:10158A00BEEC12F0DF6E0650D96EDA6A000E036EF8
:10159A00010E026EFCEC11F00250BEEC12F0DF6E8E
:1015AA00000E036E010E026EFCEC11F00950D96EAA
:1015BA00DA6A000E036E010E026EFCEC11F00250A4
:1015CA00BEEC12F0DF6E0A50D96EDA6A000E036EB4
:1015DA00010E026EFCEC11F00250BEEC12F0DF6E4E
:1015EA000B50D96EDA6A000E036E000E026EFCEC26
:1015FA0011F00250BEEC12F0DF6EDBEC12F01200BA
:10160A000950D8B40BEF0BF00DEF0BF067EF0BF0AE
:10161A0009C001F017EC12F001C00AF002C00BF089
:10162A0046EF0BF007C001F008C002F009C003F052
:10163A000AC004F00BC005F092EC09F00150021048
:10164A00D8A42AEF0BF02CEF0BF032EF0BF007C007
:10165A0007F008C008F06BEF0BF0010E0724016ECB
:10166A00000E0820026E09C0F6FF080EF76E080089
:10167A00F550036E046A2BEC0FF001C007F002C0AC
:10168A0008F007500810D8B44DEF0BF04FEF0BF0ED
:10169A0067EF0BF007C0F6FF08C0F7FFF86A070EFE
:1016AA00F76403D00800F55005D0F6CFE9FFF7CF6D
:1016BA00EAFFEF500009D8A465EF0BF067EF0BF0D3
:1016CA0017EF0BF0000E076E000E086E1200ADEC5D
:1016DA000FF0C9EC12F05704D8A476EF0BF078EFAC
:1016EA000BF0B5EF0BF05650D8B47EEF0BF080EF4D
:1016FA000BF083EF0BF0ADEC0FF0566A49EC0DF0EE
:10170A00330E4F6EBB0E4E6EE00EE82EFED74E2EF7
:10171A00FCD74F2EFAD75750D8A496EF0BF098EF74
:10172A000BF09AEF0BF070EF0BF0D2EC06F0330EE1
:10173A004F6EBB0E4E6EE00EE82EFED74E2EFCD735
:10174A004F2EFAD75750D8A4ADEF0BF0AFEF0BF0EE
:10175A00B1EF0BF070EF0BF016EC0AF070EF0BF034
:10176A0064EC12F0C5EF0BF0020E4F6E040E4E6ED3
:10177A00BA0EE82EFED74E2EFCD74F2EFAD700D03F
:10178A005750D8B4CBEF0BF0CDEF0BF0B9EF0BF00D
:10179A0070EF0BF007EF00F0066A04BED9EF0BF00A
:1017AA00D7EF0BF0DFEF0BF0036C041ED8B0042A5E
:1017BA00010E066E02BEE6EF0BF0E4EF0BF0ECEF63
:1017CA000BF0016C021ED8B0022A010E061A000E96
:1017DA00086E000E076E03500410D8B4F7EF0BF032
:1017EA00F9EF0BF021EF0CF0010E056E01EF0CF092
:1017FA00D89003360436052A04AE06EF0CF008EF3B
:10180A000CF0FDEF0BF0D890073608360350015C58
:10181A0004500258D8A014EF0CF016EF0CF01BEF8E
:10182A000CF00350015E0450025A0780D89004322B
:10183A000332052E08EF0CF00650D8B427EF0CF04F
:10184A0029EF0CF02DEF0CF0076C081ED8B0082A0F
:10185A0007C001F008C002F01200929080902F0E8B
:10186A00056EC00EE82EFED7052EFCD78080140E1A
:10187A00E82EFED7928080B045EF0CF047EF0CF0CF
:10188A0091EF0CF080A04CEF0CF04EEF0CF047EF0C
:10189A000CF080B053EF0CF055EF0CF04EEF0CF05B
:1018AA000E6A0E50090FD96EDA6A2BEC11F0DF6E50
:1018BA000E2A040E0E6464EF0CF066EF0CF056EF7D
:1018CA000CF00D50056E066A0A5009C007F0086A46
:1018DA000726000E08220B500726000E08220C507D
:1018EA000726000E08220550071807E106500818B7
:1018FA00D8A482EF0CF084EF0CF091EF0CF00350B7
:10190A00D96EDA6A09C0DFFF0450D96EDA6A0BC0F1
:10191A00DFFF010E92EF0CF0000E12000350D8B454
:10192A0099EF0CF09BEF0CF0A3EF0CF00350D8A446
:10193A00A1EF0CF0A3EF0CF0A8EF0CF00150E7ECCC
:10194A0012F0EFEF0CF00350D96EDA6A090ED926BD
:10195A00DE50DE10D8B4B4EF0CF0B6EF0CF0CFEFD7
:10196A000CF00350D96EDA6A090ED9260350E16EDB
:10197A00E26A020EE126DE50E65CE650800A086E54
:10198A00DE50800A0858D8B0CDEF0CF0CFEF0CF03B
:10199A00EFEF0CF00350D96EDA6A020ED926DECFC9
:1019AA0004F0DDCF05F00350D96EDA6ADECF06F017
:1019BA00DDCF07F004500624D96E05500720DA6EF1
:1019CA0001C0DFFF0350D96EDA6A020ED926DE2A79
:1019DA00000EDD221200DFEC12F0000E036ED00EB4
:1019EA00026ED0EC12F0000E036E000E026ED0EC06
:1019FA0012F0E3EC12F0000E036ED10E026ED0EC80
:101A0A0012F0000E036E000E026EFCEC11F0025092
:101A1A000E6EDBEC12F00EAE15EF0DF017EF0DF0B7
:101A2A0048EF0DF0D7EC12F0000E056E6C0E066E44
:101A3A000650D8A4080E076E000E7DEC10F00B0EAF
:101A4A000D6E260E0C6E5E0EE82EFED70C2EFCD7FF
:101A5A000D2EFAD7DFEC12F0000E036ED00E026ED6
:101A6A00D0EC12F0000E036E000E026ED0EC12F0F3
:101A7A000EC00CF07F0E0C160C50026E036AD0ECEE
:101A8A0012F0DBEC12F01200446A456A000E7CEC9C
:101A9A0011F0010E7CEC11F0440E036E450E046E3B
:101AAA0032EC0CF00009D8B45DEF0DF05FEF0DF0E9
:101ABA0089EF0DF0960E2F6E010E306EC80E316E44
:101ACA0044C032F0336AC0EC11F0000E056E960E77
:101ADA00066E010E076E000E7DEC10F0960E2F6E4C
:101AEA00010E306ED00E316E45C032F0336AC0EC52
:101AFA0011F0000E056E960E066E010E076E010EAF
:101B0A007DEC10F09FEF0DF0000E056E860E066E4E
:101B1A000650D8A4080E076E000E7DEC10F0000ED9
:101B2A00056E3E0E066E0650D8A4080E076E010E0C
:101B3A007DEC10F01200066A02BEA8EF0DF0A6EFC7
:101B4A000DF0AEEF0DF0016C021ED8B0022A010EA4
:101B5A00066E04BEB5EF0DF0B3EF0DF0B9EF0DF060
:101B6A00036C041ED8B0042A03500410D8B4C0EF82
:101B7A000DF0C2EF0DF0E6EF0DF0010E056ECAEFA3
:101B8A000DF0D89003360436052A04AECFEF0DF0D7
:101B9A00D1EF0DF0C6EF0DF00350015C045002586E
:101BAA00D8A0DAEF0DF0DCEF0DF0E0EF0DF0035006
:101BBA00015E0450025AD89004320332052ED1EF46
:101BCA000DF00650D8B4ECEF0DF0EEEF0DF0F2EF99
:101BDA000DF0016C021ED8B0022A01C001F002C049
:101BEA0002F01200000E096E000E0A6E000E0B6E55
:101BFA00000E0C6E0550061007100810D8B408EF36
:101C0A000EF00AEF0EF040EF0EF0010E0D6E14EF1B
:101C1A000EF0D89005360636073608360D2A08AE75
:101C2A0019EF0EF01BEF0EF00EEF0EF0D8900936FA
:101C3A000A360B360C360550015C0650025807501E
:101C4A00035808500458D8A02DEF0EF02FEF0EF0CD
:101C5A0038EF0EF00550015E0650025A0750035A3B
:101C6A000850045A0980D8900832073206320532E1
:101C7A000D2E1BEF0EF009C001F00AC002F00BC0D6
:101C8A0003F00CC004F01200000E076E000E066E80
:101C9A000150D96EDA6ADFCFF6FF080EF76E080038
:101CAA00F5502A0AD8A45CEF0EF05EEF0EF083EF2F
:101CBA000EF00150D96EDA6ADF2A0250D96EDA6A5A
:101CCA00020EDF26DF5CD96EDA6ADECF06F0DECFDF
:101CDA0007F096EF0EF00A0E0602F3CF03F0F4CFE8
:101CEA0004F00702F350042605500324066E000E82
:101CFA000420076E0150D96EDA6ADF2A0150D96EC4
:101D0A00DA6ADFCFF6FF080EF76E0800F550D00F3B
:101D1A00056E090E056494EF0EF096EF0EF070EF63
:101D2A000EF006C001F007C002F012000C50D8A451
:101D3A00A1EF0EF0A3EF0EF0B0EF0EF054C00CF0CE
:101D4A000C50D8A4ABEF0EF0ADEF0EF0B0EF0EF0E2
:101D5A00000EE5EF0EF00CC007F00DC008F0EAEC3B
:101D6A000FF007500C260C50D96EDA6ADF50D8A44F
:101D7A00C1EF0EF0C3EF0EF0C8EF0EF0000E546E76
:101D8A005450E5EF0EF00CC007F00DC008F01CEC43
:101D9A0010F00C500724546E5450D96EDA6ADF5092
:101DAA00D8B4DAEF0EF0DCEF0EF0E3EF0EF0545099
:101DBA00D96EDA6ADF6A542AE4EF0EF0546A0C50DC
:101DCA00120055A0EBEF0EF0EDEF0EF0F3EF0EF070
:101DDA000FC009F00EC00AF0DEEC11F011BEFAEFE6
:101DEA000EF0F8EF0EF0FEEF0EF0000E116E000E80
:101DFA00106E000E146E000E136E0EEF0FF0000E32
:101E0A00026E200E016E0EC003F093EC0CF0134A22
:101E1A00142A1050135C1450800A126E1150800A52
:101E2A001258D8A01BEF0FF01DEF0FF004EF0FF0C0
:101E3A0055B022EF0FF024EF0FF02AEF0FF00FC08A
:101E4A0009F00EC00AF0DEEC11F0120001C0F6FF34
:101E5A0002C0F7FFF86A070EF76403D00800F550CE
:101E6A0005D0F6CFE9FFF7CFEAFFEF500318D8A461
:101E7A0041EF0FF043EF0FF049EF0FF001C001F00F
:101E8A0002C002F06BEF0FF00150056E0250066EB1
:101E9A00014A022A05C0F6FF06C0F7FFF86A070ED4
:101EAA00F76403D00800F55005D0F6CFE9FFF7CF65
:101EBA00EAFFEF500009D8A465EF0FF067EF0FF0C3
:101ECA002BEF0FF0000E016E000E026E120001C021
:101EDA0007F002C008F08DEF0FF00506D8A006063D
:101EEA0003C0D9FF04C0DAFF034A042A07C0E1FF8E
:101EFA0008C0E2FF074A082ADFCFE7FFE750D8A465
:101F0A0089EF0FF08BEF0FF08DEF0FF09FEF0FF0CF
:101F1A0005500610D8A494EF0FF096EF0FF072EF69
:101F2A000FF09FEF0FF007C0D9FF08C0DAFFDF6A92
:101F3A00074A082A0506D8A00606052806E1062843
:101F4A00D8A4AAEF0FF0ACEF0FF098EF0FF0120041
:101F5A00720ED36E0F0EC16E070EB46E080E936E1C
:101F6A004BEC12F0A00E0E6E860E0F6E010E106E66
:101F7A00000E116EABEC10F0F0EC0CF095EC12F0D8
:101F8A00D7EC12F0000E056E4E0E066E0650D8A45F
:101F9A00080E076E000E7DEC10F0000E056E2D0E79
:101FAA00066E0650D8A4080E076E010E7DEC10F0DE
:101FBA00150E176E4B0E166EBE0EE82EFED7162E97
:101FCA00FCD7172EFAD700D01200000E0B6E000EA7
:101FDA000A6EF3EF0FF0072A0A4A0B2A0750D96E46
:101FEA00DA6ADF50D8B4FCEF0FF0FEEF0FF017EF0C
:101FFA0010F008C001F00150D8A4080E026E075074
:10200A00D96EDA6ADF50096E0950036E046A2BEC46
:10201A000FF001500210D8A415EF10F017EF10F0CE
:10202A00F0EF0FF00AC007F00BC008F01200000E24
:10203A000B6E000E0A6E25EF10F0072A0A4A0B2AC9
:10204A000750D96EDA6ADF50D8B42EEF10F030EFAD
:10205A0010F049EF10F008C001F00150D8A4080EA2
:10206A00026E0750D96EDA6ADF50096E0950036EA4
:10207A00046A2BEC0FF001500210D8B447EF10F0AD
:10208A0049EF10F022EF10F00AC007F00BC008F079
:10209A00120064EF10F003C0F6FF04C0F7FFF86AFD
:1020AA00070EF76403D00800F55005D0F6CFE9FF14
:1020BA00F7CFEAFFEF5001EC11F0034A042A03C0FC
:1020CA00F6FF04C0F7FFF86A070EF76403D00800AA
:1020DA00F55005D0F6CFE9FFF7CFEAFFEF50000938
:1020EA00D8A47AEF10F07CEF10F050EF10F0120045
:1020FA00086E100E056084EF10F086EF10F08BEF7B
:10210A0010F005C009F00A6A8FEF10F0000E0A6E8F
:10211A000F0E096E09C005F00850D8A497EF10F009
:10212A0099EF10F09EEF10F00550800F0B6EA1EFA3
:10213A0010F00550C00F0B6E0B50D7EC10F006C014
:10214A0003F007C004F04EEC10F012009380938263
:10215A00280EC66EC56A000E016E120E026E7A0E47
:10216A00036E000E046E0EC012F00FC013F010C002
:10217A0014F011C015F0020ED89012361336143628
:10218A001536E82EC1EF10F012C005F013C006F0A4
:10219A0014C007F015C008F0F7EC0DF00104C86E82
:1021AA00C76A1200026E02C001F0F00E01168C50CE
:1021BA000F0B01108C6E8C908C8200008C92030E97
:1021CA00016E980EE82EFED7012EFCD702C001F050
:1021DA00013AF00E0116F00E01168C500F0B011089
:1021EA008C6E8C8200008C92080E016ECA0EE82E4C
:1021FA00FED7012EFCD71200026E02C001F0F00ECB
:10220A0001168C500F0B01108C6E8C808C82000092
:10221A008C92030E016E980EE82EFED7012EFCD783
:10222A0002C001F0013AF00E0116F00E01168C50B0
:10223A000F0B01108C6E8C8200008C92080E016EBE
:10224A00CA0EE82EFED7012EFCD71200016A026AD6
:10225A0080A032EF11F034EF11F02DEF11F0210EC2
:10226A00E82EFED70000D890013680A03FEF11F08B
:10227A0041EF11F042EF11F0018080B047EF11F009
:10228A0049EF11F042EF11F0022A070E026450EFF3
:10229A0011F052EF11F02DEF11F001501200D00E93
:1022AA00F66E250EF76E000EF86E0900F5CF57F0A0
:1022BA0002EE00F0640EEE6AE806FDE101EE7DF042
:1022CA002A0EEE6AE806FDE100EEC8F0200EEE6A7C
:1022DA00E806FDE100EE50F0070EEE6AE806FDE1C1
:1022EA0058905892000EF86E00016CEF0BF0036ED6
:1022FA000350D8B483EF11F085EF11F08BEF11F092
:10230A00000E056EC00E046E8FEF11F0000E056E02
:10231A00800E046E0450D7EC10F0066A200E01EC11
:10232A0011F0062A0F0E06649DEF11F09FEF11F0CF
:10233A0093EF11F012002CC02EF0ADEF11F02BC06C
:10234A0020F02E0E216E2DC022F0236A75EC04F0C7
:10235A002EC0F6FF080EF76E0800F5500009D8A443
:10236A00B9EF11F0BBEF11F0A4EF11F0000E2C6ED3
:10237A00000E2B6E1200320E386E2FC039F030C0AC
:10238A003AF0000E3C6E000E3B6E000E436E000EDD
:10239A00426E390E2B6E31C02CF0380E2D6EA0EC29
:1023AA0011F03B502F24D96E3C503020DA6EDF6A90
:1023BA001200000E0D6E000E0C6EEDEF11F00BC048
:1023CA0001F0026A0AC003F093EC0CF00C4A0D2AE1
:1023DA0009500C24D96EDA6ADF500B6E0B50D8A460
:1023EA00F9EF11F0FBEF11F0E4EF11F01200ABEC92
:1023FA0012F0C586ABEC12F0C9CF04F0056AABEC5B
:10240A0012F002500310D8B40DEF12F010EF12F0D0
:10241A00C58A11EF12F0C59AC58804C002F005C03A
:10242A0003F0120001C003F01CEF12F0012A01C0F0
:10243A00F6FF080EF76E0800F5500009D8A428EF39
:10244A0012F02AEF12F01BEF12F00350015C016E3A
:10245A00026A01BE0206120008BE36EF12F038EF19
:10246A0012F03EEF12F007C007F008C008F04AEF7A
:10247A0012F007C009F008C00AF0091E0A1E094A2C
:10248A000A2A09C007F00AC008F01200956A270E46
:10249A00036EF50EE82EFED7032EFCD70000020EBF
:1024AA00D7EC10F0280ED7EC10F0010ED7EC10F094
:1024BA000C0ED7EC10F0060ED7EC10F01200D7EC89
:1024CA0012F0000E056E9F0E066E0650D8A4080E76
:1024DA00076E000E7DEC10F0000E056E790E066E8A
:1024EA000650D8A4080E076E010E7DEC10F01200FB
:1024FA000600F2A283EF12F085EF12F093EF12F0CA
:10250A005750D8B48BEF12F08EEF12F0010E8FEF06
:10251A0012F0000E576E010E566EF292589211008A
:10252A00948E080EB86E240EAC6E900EAB6ECF0E63
:10253A00AF6EA2EF12F0AECF01F09EBAA7EF12F083
:10254A00A9EF12F0A0EF12F09E9A1200C5CF01F087
:10255A001F0E0116D8A4B4EF12F0B6EF12F0ABEFCB
:10256A0012F0C7B4BBEF12F0BDEF12F0ABEF12F0EE
:10257A001200026E02C001F00F0E011602380F0B94
:10258A000A0DF35001241200F288F292F19CD08EC7
:10259A00F28EF28C1200ABEC12F002C0C9FFABEC67
:1025AA0012F01200010ED7EC10F01200ABEC12F090
:1025BA00C5841200ABEC12F0C5801200ABEC12F02D
:0725CA00C58212001200019E
:020000040020DA
:08000000FFFFFFFFFFFFFFFF00
:020000040030CA
:0E00000000091F1EFF0181FF0FC00FE00F401F
:00000001FF
