:020000040000FA
:04000000C7EF11F045
:100800000046656368613A253032642F25303264D2
:100810002F32302530326400486F72613A20253023
:1008200032643A253032643A253032640020202088
:100830002020202020202020202020202000526561
:10084000696E74656E74616E646F2E2E2E00475053
:10085000533A2053696E2073656E616C00525443A5
:1008600020646574656E69646F00496E69636961CF
:100870006E646F2E2E2E0044485431313A2045725A
:10088000726F72004573746163696F6E204D657499
:100890000042757363616E646F2E2E2E004C6F6E76
:1008A0003A25732573004C61743A2573257300480B
:1008B0003A202564252500543A202564DF4300288A
:1008C0006E756C6C2900244750524D43002C00007B
:1008D0002150D96EDA6ADFCFF6FF080EF76E0800F6
:1008E000F550250AD8A477EF04F079EF04F099EFDA
:1008F00005F02150D96EDA6ADF2A000E506E000E24
:100900004F6E4FC054F0516852682A6AA2EF04F04B
:1009100054822150D96EDA6ADF2AA2EF04F0010E68
:100920002A6EA2EF04F02150D96EDA6ADFCFF6FF0B
:10093000080EF76E0800F550300AD8B488EF04F0BE
:100940008FEF04F02A50D8B4A8EF04F0AAEF04F017
:1009500093EF04F021C001F022C002F003EC0EF08E
:1009600001C04FF002C050F050BEBBEF04F0B9EF31
:1009700004F0C0EF04F054804F6C501ED8B0502AE1
:100980002150D96EDA6ADF50296E29C0F6FF080EB1
:10099000F76E0800F550640AD8B4D1EF04F0D3EF35
:1009A00004F0E1EF04F029C0F6FF080EF76E08002E
:1009B000F550690AD8A4DFEF04F0E1EF04F0FDEF91
:1009C00004F022C0D9FF23C0DAFF020EDF26DF5C6D
:1009D000D96EDA6ADECF25F0DECF26F02150D96E4F
:1009E000DA6A2928DF6E20C015F025C016F026C06F
:1009F00017F0C5EC06F0AAEF05F02A6A2150D96E6F
:100A0000DA6ADFCFF6FF080EF76E0800F550730ABA
:100A1000D8A40DEF05F00FEF05F017EF05F021500A
:100A2000D96EDA6ADF2A010E2A6E59EF05F02150DD
:100A3000D96EDA6ADFCFF6FF080EF76E0800F550C0
:100A40006C0AD8A426EF05F028EF05F059EF05F061
:100A50002150D96EDA6ADF50246E010E242624C09C
:100A6000F6FF080EF76E0800F5506C0AD8A43BEFAD
:100A700005F03DEF05F059EF05F02150D96EDA6A27
:100A8000DF50246E020E242624C0F6FF080EF76EF7
:100A90000800F550730AD8A450EF05F052EF05F0A6
:100AA00059EF05F02150D96EDA6A030EDF2613EFF5
:100AB00005F02A50D8B45FEF05F061EF05F074EF50
:100AC00005F020C009F022C0D9FF23C0DAFF020ED2
:100AD000DF26DF5CD96EDA6ADECF0AF0DECF0BF0FC
:100AE00077EC07F0AAEF05F02150D96EDA6ADFCF74
:100AF000F6FF080EF76E0800F550250AD8A483EF1C
:100B000005F085EF05F093EF05F02150D96EDA6A14
:100B1000DF2A000E026E250E016E20C003F04FEC9E
:100B20000CF0AAEF05F02150D96EDA6ADF2AAAEF9D
:100B300005F02150D96EDA6ADFCFF6FF080EF76EA6
:100B40000800F550016E026A20C003F04FEC0CF073
:100B500093EF05F012000001C56BC66B0EC007F0E5
:100B60000FC008F0C60E096EC4EC0AF0075008105A
:100B7000D8A4BDEF05F0BFEF05F0C2EF05F0000E01
:100B8000C4EF06F0600E016E026A0EC003F00FC0E3
:100B900004F0000E066E630E056E26EC0FF00001E9
:100BA000C36B600E0C6ECD0E0D6E55EC0EF0000199
:100BB000C76FA0EF06F0C751D96EDA6A410EDE1892
:100BC000D8B4E5EF05F0E8EF05F0010EE9EF05F028
:100BD000000EC66F97EF06F010501110D8B4F3EF67
:100BE00005F0F5EF05F097EF06F0C651D8B4FBEF2E
:100BF00005F0FDEF05F097EF06F010C001F011C011
:100C000002F0C7C003F0046A000E066E070E056E00
:100C100026EC0FF020EE07F01050D9261150DA2202
:100C2000DF6A97EF06F012501310D8B41AEF06F0EF
:100C30001CEF06F097EF06F0C651D8B422EF06F08D
:100C400024EF06F097EF06F0C751D96EDA6A12C0AA
:100C5000E1FF13C0E2FFDFCFE7FF20EE01F012500B
:100C6000D9261350DA22DF6A97EF06F014501510D8
:100C7000D8B43DEF06F03FEF06F097EF06F0C6510F
:100C8000D8B445EF06F047EF06F097EF06F014C032
:100C900001F015C002F0C7C003F0046A000E066E32
:100CA000080E056E26EC0FF020EE08F01450D92641
:100CB0001550DA22DF6A97EF06F016501710D8B4F5
:100CC00064EF06F066EF06F097EF06F0C651D8B471
:100CD0006CEF06F06EEF06F097EF06F0C751D96E95
:100CE000DA6A16C0E1FF17C0E2FFDFCFE7FF20EEB0
:100CF00001F01650D9261750DA22DF6A97EF06F076
:100D0000C551020AD8B4DBEF05F0010AD8B4ECEF04
:100D100005F0070AD8B413EF06F0010AD8B436EF8D
:100D200006F0030AD8B45DEF06F097EF06F0000E68
:100D30000C6ECD0E0D6E55EC0EF00001C76FC52B7D
:100D4000C751D8B4A6EF06F0A8EF06F0B0EF06F052
:100D5000060EC565AEEF06F0B0EF06F080EF06F0C8
:100D6000C46BC651D8B4B7EF06F0B9EF06F0C3EFC5
:100D700006F0050EC565BFEF06F0C1EF06F0C3EF44
:100D800006F0010EC46FC4511200010E1A6E17BE98
:100D9000CCEF06F0CFEF06F0010ED0EF06F0000E1C
:100DA0001D6E4FC01BF050C01CF01D50D8B4DBEFBF
:100DB00006F0DDEF06F0F4EF06F01B06D8A01C06E7
:100DC0001D50D8A4E6EF06F0E8EF06F0EEEF06F0CF
:100DD000000E196E2B0E186EF2EF06F0000E196E53
:100DE0002D0E186E18C01DF0000E1F6E1F0E1E6E09
:100DF0000001E76B28EF07F01E06D8A01F061E5063
:100E0000C80FD96EDA6A16C001F017C002F0000EE2
:100E1000046E0A0E036E05EC0DF001C007F002C06F
:100E200008F094EC11F00750300FDF6E1A6A1B06C1
:100E3000D8A01C0616C001F017C002F0000E046E08
:100E40000A0E036E8DEC0BF001C016F002C017F015
:100E50001FBE33EF07F01F5008E11E04D8A033EF88
:100E600007F035EF07F05AEF07F016501710D8A427
:100E70003CEF07F03EEF07F0FCEF06F01A50D8A465
:100E800044EF07F046EF07F0FCEF06F01CBE51EF11
:100E900007F01C5008E11B04D8A051EF07F053EFF6
:100EA00007F05AEF07F054B258EF07F05AEF07F087
:100EB000FCEF06F01D50D8B460EF07F062EF07F0CA
:100EC0006BEF07F01E06D8A01F061E50C80FD96E84
:100ED000DA6A1DC0DFFF15C00EF01E50C80F0F6E7E
:100EE0001BC010F01CC011F0A0EC0EF012000AC0E4
:100EF00012F00BC013F012501310D8A482EF07F0B9
:100F000084EF07F08AEF07F0BF0E126E1250D8A4DC
:100F1000080E136E000E156E000E146E92EF07F0A1
:100F2000144A152A145012240C6E155013200D6EFD
:100F30000CC0F6FF0DC0F7FFF86A070EF76403D088
:100F40000800F55005D0F6CFE1FFF7CFE2FFE750FC
:100F50000009D8A4AEEF07F0B0EF07F090EF07F06C
:100F600014C00EF015C00FF04FC010F050C011F0BB
:100F700054B0BDEF07F0BFEF07F0F6EF07F0CBEF8F
:100F800007F0000E026E200E016E09C003F04FEC58
:100F90000CF0144A152A1050145C1550800A0C6E7F
:100FA0001150800A0C58D8A0D8EF07F0DAEF07F0FC
:100FB000C1EF07F0F6EF07F012C0F6FF13C0F7FF1E
:100FC000F86A070EF76403D00800F55005D0F6CF95
:100FD000E1FFF7CFE2FFE7500C6E0C50016E026AA2
:100FE00009C003F04FEC0CF0124A132A0E06D8A0E9
:100FF0000F060E2806E10F28D8A401EF08F003EF32
:1010000008F0DCEF07F054A008EF08F00AEF08F052
:1010100025EF08F016EF08F0000E026E200E016EAC
:1010200009C003F04FEC0CF0144A152A1050145C60
:101030001550800A0C6E1150800A0C58D8A023EF6E
:1010400008F025EF08F00CEF08F01200000E07EC96
:1010500012F0010E07EC12F0000E016E010E026E8E
:10106000000E046E640E036E010E066EF40E056E25
:10107000BCEC08F00009D8B440EF08F042EF08F0EB
:10108000A5EF08F0000E076E010E086EC60E096E81
:10109000C4EC0AF007500810D8B451EF08F053EF31
:1010A00008F0A5EF08F0000E0E6E010E0F6E6F0E29
:1010B000106E010E116E790E126E010E136E640E1B
:1010C000146E010E156E7B0E166E010E176EABECD4
:1010D00005F00009D8B46FEF08F071EF08F0A5EF44
:1010E00008F07D0E2F6E010E306EA60E316E6F0E63
:1010F000326E010E336E790E346E010E356E23ECB6
:1011000011F0000E056E7D0E066E010E076E000ECC
:101110002CEC10F07D0E2F6E010E306E9D0E316E98
:10112000640E326E010E336E7B0E346E010E356E20
:1011300023EC11F0000E056E7D0E066E010E076E9B
:10114000010E2CEC10F0BBEF08F0000E056E4E0EF9
:10115000066E0650D8A4080E076E000E2CEC10F098
:10116000000E056E910E066E0650D8A4080E076E8E
:10117000010E2CEC10F01200000E0E6E000E0D6E23
:101180000C6AAB980000AB88C8EF08F0AECF0BF04C
:101190009EBACDEF08F0CFEF08F0C6EF08F0000ED2
:1011A0000A6E000E096E45EF09F09EAADAEF08F00C
:1011B000DCEF08F03FEF09F0AECF0FF0ABA2E3EFAA
:1011C00008F0E5EF08F0E9EF08F0AB98AB8843EFE3
:1011D00009F00C50D8A4EFEF08F0F1EF08F008EF99
:1011E00009F0240E0F18D8A4F8EF08F0FAEF08F071
:1011F00008EF09F0010E0C6E0D500124D96E0E504F
:101200000220DA6E0FC0DFFF0D4A0E2A3FEF09F011
:101210000C50D8B40EEF09F010EF09F03FEF09F0D1
:101220000A0E0F18D8B417EF09F019EF09F02AEFDA
:1012300009F0FF0E0324076EFF0E0420086E07500E
:101240000D5C08500E58D8A028EF09F02AEF09F0DD
:1012500034EF09F00D500124D96E0E500220DA6EE1
:10126000DF6A010E51EF09F00D0E0F18D8B43BEFF5
:1012700009F03DEF09F03FEF09F0FCEF08F0420EF6
:10128000E82EFED700D0094A0A2A0550095C06500C
:101290000A58D8A04EEF09F050EF09F0D5EF08F04A
:1012A000000E12000406D8A00506042806E1052851
:1012B000D8A45DEF09F05FEF09F06BEF09F0000EC5
:1012C000026E000E016ED5EF09F0014A022A032AD0
:1012D0000406D8A0050601C0F6FF02C0F7FFF86AB1
:1012E000070EF76403D00800F55005D0F6CFE1FFF4
:1012F000F7CFE2FFE7500009D8B481EF09F083EFA0
:1013000009F0B9EF09F003C0F6FF080EF76E080008
:10131000F5500009D8B48FEF09F091EF09F0B9EF5B
:1013200009F004500510D8B498EF09F09AEF09F0CD
:10133000B9EF09F003C0F6FF080EF76E0800F5CF0D
:1013400006F001C0F6FF02C0F7FFF86A070EF76467
:1013500003D00800F55005D0F6CFE1FFF7CFE2FF4C
:10136000E7500618D8B4B7EF09F0B9EF09F065EF08
:1013700009F001C0F6FF02C0F7FFF86A070EF76434
:1013800003D00800F55005D0F6CFE1FFF7CFE2FF1C
:10139000E750066E03C0F6FF080EF76E0800F55022
:1013A000065C016E026AD8A002061200720ED36EAD
:1013B0000F0EC16E070EB46EAEEC11F0A00E0E6EE5
:1013C000860E0F6E010E106E000E116E5AEC10F0AC
:1013D000ACEC0CF0DEEC11F026EC12F0000E056E19
:1013E000840E066E0650D8A4080E076E000E2CEC74
:1013F00010F0000E056E6A0E066E0650D8A4080E98
:10140000076E010E2CEC10F0150E4E6E4B0E4D6E4D
:10141000BE0EE82EFED74D2EFCD74E2EFAD700D0AA
:1014200021EF0AF05CEC0DF03AEF0AF026EC08F040
:101430003AEF0AF02BEC0BF03AEF0AF0556A3AEF6C
:101440000AF055504D6E4E6A4E50000AD8B42BEF3C
:101450000AF01EEF0AF04D50000AD8B412EF0AF05D
:10146000010AD8B416EF0AF0030AD8B41AEF0AF04A
:101470001EEF0AF0010E5524016E026A000E0222D0
:10148000000E046E030E036E67EC0FF00150556EF4
:10149000330E4E6EBB0E4D6EE00EE82EFED74D2E77
:1014A000FCD74E2EFAD721EF0AF000EF00F02EEC19
:1014B00012F0000E036ED00E026E1FEC12F0000E42
:1014C000036E000E026E1FEC12F032EC12F0000EF2
:1014D000036ED10E026E1FEC12F00850D96EDA6A5C
:1014E000000E036E010E026E5FEC11F0025014EC60
:1014F00012F0DF6E0750D96EDA6A000E036E010E2D
:10150000026E5FEC11F0025014EC12F0DF6E065028
:10151000D96EDA6A000E036E010E026E5FEC11F0F6
:10152000025014EC12F0DF6E000E036E010E026E1C
:101530005FEC11F00950D96EDA6A000E036E010EED
:10154000026E5FEC11F0025014EC12F0DF6E0A50E4
:10155000D96EDA6A000E036E010E026E5FEC11F0B6
:10156000025014EC12F0DF6E0B50D96EDA6A000EE6
:10157000036E000E026E5FEC11F0025014EC12F0DC
:10158000DF6E2AEC12F012000950D8B4CAEF0AF04C
:10159000CCEF0AF026EF0BF009C001F07AEC11F065
:1015A00001C00AF002C00BF005EF0BF007C001F01C
:1015B00008C002F009C003F00AC004F00BC005F037
:1015C00052EC09F001500210D8A4E9EF0AF0EBEF59
:1015D0000AF0F1EF0AF007C007F008C008F02AEFA0
:1015E0000BF0010E0724016E000E0820026E09C0E8
:1015F000F6FF080EF76E0800F550036E046AE5EC7E
:101600000EF001C007F002C008F007500810D8B46F
:101610000CEF0BF00EEF0BF026EF0BF007C0F6FF10
:1016200008C0F7FFF86A070EF76403D00800F5500A
:1016300005D0F6CFE1FFF7CFE2FFE7500009D8A4CD
:1016400024EF0BF026EF0BF0D6EF0AF0000E076E3A
:10165000000E086E1200466A82EF0BF0470E066E0F
:10166000480E076E490E086E4A0E096E4B0E0A6E42
:101670004C0E0B6E57EC0AF0000E07EC12F07D0ECC
:101680002F6E010E306E010E316E4AC032F0336A99
:101690004BC034F0356A4CC036F0376A23EC11F099
:1016A000000E056E7D0E066E010E076E000E2CEC10
:1016B00010F0010E07EC12F07D0E2F6E010E306E51
:1016C000180E316E47C032F0336A48C034F0356AC4
:1016D00049C036F0376A23EC11F0000E056E7D0E1E
:1016E000066E010E076E010E2CEC10F00B0E456E0F
:1016F000260E446E5E0EE82EFED7442EFCD7452EF5
:10170000FAD7462A4650800A7B0FD8A08AEF0BF002
:101710008CEF0BF02EEF0BF01200066A04BE95EF73
:101720000BF093EF0BF09BEF0BF0036C041ED8B0A3
:10173000042A010E066E02BEA2EF0BF0A0EF0BF022
:10174000A8EF0BF0016C021ED8B0022A010E061A97
:10175000000E086E000E076E03500410D8B4B3EFED
:101760000BF0B5EF0BF0DDEF0BF0010E056EBDEFEA
:101770000BF0D89003360436052A04AEC2EF0BF006
:10178000C4EF0BF0B9EF0BF0D890073608360350D2
:10179000015C04500258D8A0D0EF0BF0D2EF0BF050
:1017A000D7EF0BF00350015E0450025A0780D89027
:1017B00004320332052EC4EF0BF00650D8B4E3EF29
:1017C0000BF0E5EF0BF0E9EF0BF0076C081ED8B05B
:1017D000082A07C001F008C002F012009290809021
:1017E0002F0E056EC00EE82EFED7052EFCD780808A
:1017F000140EE82EFED7928080B001EF0CF003EFBC
:101800000CF04DEF0CF080A008EF0CF00AEF0CF09C
:1018100003EF0CF080B00FEF0CF011EF0CF00AEFBB
:101820000CF00E6A0E50090FD96EDA6ADAEC10F07D
:10183000DF6E0E2A040E0E6420EF0CF022EF0CF087
:1018400012EF0CF00D50056E066A0A5009C007F041
:10185000086A0726000E08220B500726000E0822F1
:101860000C500726000E08220550071807E1065005
:101870000818D8A43EEF0CF040EF0CF04DEF0CF040
:101880000350D96EDA6A09C0DFFF0450D96EDA6AF4
:101890000BC0DFFF010E4EEF0CF0000E12000350E4
:1018A000D8B455EF0CF057EF0CF05FEF0CF003508D
:1018B000D8A45DEF0CF05FEF0CF064EF0CF001507A
:1018C00036EC12F0ABEF0CF00350D96EDA6A090E69
:1018D000D926DE50DE10D8B470EF0CF072EF0CF0A9
:1018E0008BEF0CF00350D96EDA6A090ED92603503B
:1018F000E16EE26A020EE126DE50E65CE650800A06
:10190000086EDE50800A0858D8B089EF0CF08BEFD3
:101910000CF0ABEF0CF00350D96EDA6A020ED92648
:10192000DECF04F0DDCF05F00350D96EDA6ADECFEA
:1019300006F0DDCF07F004500624D96E05500720CD
:10194000DA6E01C0DFFF0350D96EDA6A020ED926C3
:10195000DE2A000EDD2212002EEC12F0000E036EC5
:10196000D00E026E1FEC12F0000E036E000E026E1F
:101970001FEC12F032EC12F0000E036ED10E026E6C
:101980001FEC12F0000E036E000E026E5FEC11F001
:1019900002500E6E2AEC12F00EAED1EF0CF0D3EF27
:1019A0000CF004EF0DF026EC12F0000E056E5D0E4B
:1019B000066E0650D8A4080E076E000E2CEC10F030
:1019C0000B0E0D6E260E0C6E5E0EE82EFED70C2E44
:1019D000FCD70D2EFAD72EEC12F0000E036ED00EAF
:1019E000026E1FEC12F0000E036E000E026E1FEC72
:1019F00012F00EC00CF07F0E0C160C50026E036A33
:101A00001FEC12F02AEC12F01200066A02BE0DEF73
:101A10000DF00BEF0DF013EF0DF0016C021ED8B0BE
:101A2000022A010E066E04BE1AEF0DF018EF0DF03B
:101A30001EEF0DF0036C041ED8B0042A03500410EE
:101A4000D8B425EF0DF027EF0DF04BEF0DF0010EA0
:101A5000056E2FEF0DF0D89003360436052A04AE3C
:101A600034EF0DF036EF0DF02BEF0DF00350015C6D
:101A700004500258D8A03FEF0DF041EF0DF045EFB4
:101A80000DF00350015E0450025AD8900432033224
:101A9000052E36EF0DF00650D8B451EF0DF053EF90
:101AA0000DF057EF0DF0016C021ED8B0022A01C0F4
:101AB00001F002C002F01200000E07EC12F0010E5D
:101AC00007EC12F0440E036E450E046EEEEC0BF0C4
:101AD0000009D8B46EEF0DF070EF0DF09AEF0DF035
:101AE0007D0E2F6E010E306EAF0E316E44C032F09F
:101AF000336A23EC11F0000E056E7D0E066E010EAA
:101B0000076E000E2CEC10F07D0E2F6E010E306E65
:101B1000B70E316E45C032F0336A23EC11F0000E7F
:101B2000056E7D0E066E010E076E010E2CEC10F098
:101B3000B0EF0DF0000E056E770E066E0650D8A4BD
:101B4000080E076E000E2CEC10F0000E056E3E0E17
:101B5000066E0650D8A4080E076E010E2CEC10F08D
:101B60001200000E096E000E0A6E000E0B6E000EC3
:101B70000C6E0550061007100810D8B4C2EF0DF017
:101B8000C4EF0DF0FAEF0DF0010E0D6ECEEF0DF07B
:101B9000D89005360636073608360D2A08AED3EF3C
:101BA0000DF0D5EF0DF0C8EF0DF0D89009360A36DC
:101BB0000B360C360550015C06500258075003588E
:101BC00008500458D8A0E7EF0DF0E9EF0DF0F2EF60
:101BD0000DF00550015E0650025A0750035A085096
:101BE000045A0980D89008320732063205320D2E89
:101BF000D5EF0DF009C001F00AC002F00BC003F0F0
:101C00000CC004F01200000E076E000E066E0150AC
:101C1000D96EDA6ADFCFF6FF080EF76E0800F550CE
:101C20002A0AD8A416EF0EF018EF0EF03DEF0EF0D2
:101C30000150D96EDA6ADF2A0250D96EDA6A020ED2
:101C4000DF26DF5CD96EDA6ADECF06F0DECF07F082
:101C500050EF0EF00A0E0602F3CF03F0F4CF04F0BB
:101C60000702F350042605500324066E000E0420DC
:101C7000076E0150D96EDA6ADF2A0150D96EDA6A2E
:101C8000DFCFF6FF080EF76E0800F550D00F056E97
:101C9000090E05644EEF0EF050EF0EF02AEF0EF035
:101CA00006C001F007C002F012000C50D8A45BEF90
:101CB0000EF05DEF0EF06AEF0EF053C00CF00C501A
:101CC000D8A465EF0EF067EF0EF06AEF0EF0000E8D
:101CD0009FEF0EF00CC007F00DC008F099EC0FF06C
:101CE00007500C260C50D96EDA6ADF50D8A47BEF6F
:101CF0000EF07DEF0EF082EF0EF0000E536E53509B
:101D00009FEF0EF00CC007F00DC008F0CBEC0FF009
:101D10000C500724536E5350D96EDA6ADF50D8B492
:101D200094EF0EF096EF0EF09DEF0EF05350D96E3B
:101D3000DA6ADF6A532A9EEF0EF0536A0C501200E3
:101D400054A0A5EF0EF0A7EF0EF0ADEF0EF00FC010
:101D500009F00EC00AF041EC11F011BEB4EF0EF024
:101D6000B2EF0EF0B8EF0EF0000E116E000E106E16
:101D7000000E146E000E136EC8EF0EF0000E026E11
:101D8000200E016E0EC003F04FEC0CF0134A142A23
:101D90001050135C1450800A126E1150800A1258B1
:101DA000D8A0D5EF0EF0D7EF0EF0BEEF0EF054B086
:101DB000DCEF0EF0DEEF0EF0E4EF0EF00FC009F0F6
:101DC0000EC00AF041EC11F0120001C0F6FF02C093
:101DD000F7FFF86A070EF76403D00800F55005D046
:101DE000F6CFE1FFF7CFE2FFE7500318D8A4FBEFEF
:101DF0000EF0FDEF0EF003EF0FF001C001F002C096
:101E000002F025EF0FF00150056E0250066E014AF8
:101E1000022A05C0F6FF06C0F7FFF86A070EF7644E
:101E200003D00800F55005D0F6CFE1FFF7CFE2FF71
:101E3000E7500009D8A41FEF0FF021EF0FF0E5EFF6
:101E40000EF0000E016E000E026E120001C007F0CF
:101E500002C008F047EF0FF00506D8A0060603C041
:101E6000D9FF04C0DAFF034A042A07C0E1FF08C013
:101E7000E2FF074A082ADFCFE7FFE750D8A443EF85
:101E80000FF045EF0FF047EF0FF059EF0FF005504F
:101E90000610D8A44EEF0FF050EF0FF02CEF0FF01C
:101EA00059EF0FF007C0D9FF08C0DAFFDF6A074A11
:101EB000082A0506D8A00606052806E10628D8A4A3
:101EC00064EF0FF066EF0FF052EF0FF012000350C7
:101ED0000410D8B46EEF0FF070EF0FF094EF0FF026
:101EE000010E056E78EF0FF0D89003360436052A00
:101EF00004AE7DEF0FF07FEF0FF074EF0FF00350A3
:101F0000015C04500258D8A088EF0FF08AEF0FF060
:101F10008EEF0FF00350015E0450025AD890043245
:101F20000332052E7FEF0FF001C001F002C002F076
:101F30001200000E0B6E000E0A6EA2EF0FF0072AC1
:101F40000A4A0B2A0750D96EDA6ADF50D8B4ABEFD1
:101F50000FF0ADEF0FF0C6EF0FF008C001F0015029
:101F6000D8A4080E026E0750D96EDA6ADF50096EE7
:101F70000950036E046AE5EC0EF001500210D8A47B
:101F8000C4EF0FF0C6EF0FF09FEF0FF00AC007F09D
:101F90000BC008F01200000E0B6E000E0A6ED4EF9C
:101FA0000FF0072A0A4A0B2A0750D96EDA6ADF5067
:101FB000D8B4DDEF0FF0DFEF0FF0F8EF0FF008C04F
:101FC00001F00150D8A4080E026E0750D96EDA6AEB
:101FD000DF50096E0950036E046AE5EC0EF0015003
:101FE0000210D8B4F6EF0FF0F8EF0FF0D1EF0FF0CA
:101FF0000AC007F00BC008F0120013EF10F003C086
:10200000F6FF04C0F7FFF86A070EF76403D0080074
:10201000F55005D0F6CFE1FFF7CFE2FFE75086ECB1
:1020200010F0034A042A03C0F6FF04C0F7FFF86A61
:10203000070EF76403D00800F55005D0F6CFE1FF96
:10204000F7CFE2FFE7500009D8A429EF10F02BEFFB
:1020500010F0FFEF0FF01200086E100E056033EF66
:1020600010F035EF10F03AEF10F005C009F00A6AF1
:102070003EEF10F0000E0A6E0F0E096E09C005F05B
:102080000850D8A446EF10F048EF10F04DEF10F0D4
:102090000550800F0B6E50EF10F00550C00F0B6E07
:1020A0000B50B0EC10F006C003F007C004F0FDECDC
:1020B0000FF0120093809382280EC66EC56A000E40
:1020C000016E120E026E7A0E036E000E046E0EC0CA
:1020D00012F00FC013F010C014F011C015F0020E72
:1020E000D8901236133614361536E82E70EF10F0ED
:1020F00012C005F013C006F014C007F015C008F0B8
:10210000B1EC0DF00104C86EC76A1200026E02C085
:1021100001F0F00E01168C500F0B01108C6E8C80AC
:102120008C8200008C92030E016E980EE82EFED772
:10213000012EFCD702C001F0013AF00E0116F00E9C
:1021400001168C500F0B01108C6E8C8200008C924B
:10215000080E016ECA0EE82EFED7012EFCD7120023
:10216000026E02C001F0F00E01168C500F0B011030
:102170008C6E8C908C8200008C92030E016E980EF7
:10218000E82EFED7012EFCD702C001F0013AF00E76
:102190000116F00E01168C500F0B01108C6E8C8204
:1021A00000008C92080E016ECA0EE82EFED7012E9A
:1021B000FCD71200016A026A80A0E1EF10F0E3EFA1
:1021C00010F0DCEF10F0210EE82EFED70000D890C2
:1021D000013680A0EEEF10F0F0EF10F0F1EF10F00C
:1021E000018080B0F6EF10F0F8EF10F0F1EF10F092
:1021F000022A070E0264FFEF10F001EF11F0DCEF8E
:1022000010F0015012002CC02EF010EF11F02BC076
:1022100020F02E0E216E2DC022F0236A68EC04F00F
:102220002EC0F6FF080EF76E0800F5500009D8A47E
:102230001CEF11F01EEF11F007EF11F0000E2C6EE5
:10224000000E2B6E1200320E386E2FC039F030C0E7
:102250003AF0000E3C6E000E3B6E000E436E000E18
:10226000426E390E2B6E31C02CF0380E2D6E03EC01
:1022700011F03B502F24D96E3C503020DA6EDF6ACB
:102280001200000E0D6E000E0C6E50EF11F00BC020
:1022900001F0026A0AC003F04FEC0CF00C4A0D2A60
:1022A00009500C24D96EDA6ADF500B6E0B50D8A49B
:1022B0005CEF11F05EEF11F047EF11F01200F4EC5B
:1022C00011F0C586F4EC11F0C9CF04F0056AF4EC06
:1022D00011F002500310D8B470EF11F073EF11F049
:1022E000C58A74EF11F0C59AC58804C002F005C014
:1022F00003F0120001C003F07FEF11F0012A01C0CA
:10230000F6FF080EF76E0800F5500009D8A48BEF11
:1023100011F08DEF11F07EEF11F00350015C016EB2
:10232000026A01BE0206120008BE99EF11F09BEF8F
:1023300011F0A1EF11F007C007F008C008F0ADEFF1
:1023400011F007C009F008C00AF0091E0A1E094A68
:102350000A2A09C007F00AC008F01200956A270E81
:10236000036EF50EE82EFED7032EFCD70000020EFA
:10237000B0EC10F0280EB0EC10F0010EB0EC10F044
:102380000C0EB0EC10F0060EB0EC10F0120001EEE6
:102390007DF0110EEE6AE806FDE100EEC8F0200EB9
:1023A000EE6AE806FDE100EE4FF0070EEE6AE80681
:1023B000FDE1000EF86E0001D6EF09F0948E080ED4
:1023C000B86E240EAC6E900EAB6ECF0EAF6EEBEF10
:1023D00011F0AECF01F09EBAF0EF11F0F2EF11F074
:1023E000E9EF11F09E9A1200C5CF01F01F0E011601
:1023F000D8A4FDEF11F0FFEF11F0F4EF11F0C7B426
:1024000004EF12F006EF12F0F4EF11F012000C6E70
:10241000000E056E2D0E066E0650D8A4080E076E2F
:102420000C502CEC10F01200026E02C001F00F0EE6
:10243000011602380F0B0A0DF35001241200F4ECC0
:1024400011F002C0C9FFF4EC11F01200010EB0EC63
:1024500010F01200F4EC11F0C5841200F4EC11F04D
:0E246000C5801200F4EC11F0C58212001200CB
:020000040020DA
:08000000FFFFFFFFFFFFFFFF00
:020000040030CA
:0E00000000091F1EFF0181FF0FC00FE00F401F
:00000001FF
