:020000040000FA
:040000007CEF10F091
:1008000000486F72613A20253032753A25303275D2
:100810003A25303275002020202020202020202062
:100820002020202020200046656368613A20253082
:1008300032752F25303275005265696E74656E749D
:10084000616E646F2E2E2E004750533A2053696E0E
:100850002073656E616C00496E696369616E646FD7
:100860002E2E2E004573746163696F6E204D657482
:100870000042757363616E646F2E2E2E0045727296
:100880006F722044485431310054656D703A202510
:1008900075DF430048756D3A2025752525004C6F9E
:1008A0006E3A25732573004C61743A2573257300E5
:1008B000286E756C6C2900244750524D43002C0063
:0108C0000037
:1008C20063EC10F0BFEC10F0A9EC10F00B0E426ECE
:1008D200260E416E5E0EE82EFED7412EFCD7422E2A
:1008E200FAD7CFEC10F0000E056E640E066E0650BD
:1008F200D8A4080E076E000E7CEC0FF0000E056EF9
:10090200570E066E0650D8A4080E076E010E7CEC38
:100912000FF0150E426E4B0E416EBE0EE82EFED744
:10092200412EFCD7422EFAD700D00101926B936B75
:1009320021EE6DF0070EDE6AE806FDE2000E886F1A
:10094200000E876F21EE64F0080EDE6AE806FDE213
:10095200000E8A6F000E896F946BCFEC10F00101CC
:100962009451D8A4B7EF04F0B9EF04F014EF05F0F6
:100972008C0E036E010E046E8D0E056E010E066E58
:100982008E0E076E010E086E9BEC0EF08F0E036E3C
:10099200010E046E900E056E010E066E860E076E37
:1009A200010E086EFAEC0EF0750E2C6E010E2D6E15
:1009B200270E2E6E8FC12FF0306A90C131F0326A4D
:1009C2000DEC10F0000E056E750E066E010E076E30
:1009D200000E7CEC0FF0750E2C6E010E2D6E010ECA
:1009E2002E6E8CC12FF0306A8DC131F0326A8EC109
:1009F20033F0346A0DEC10F0000E056E750E066EC3
:100A0200010E076E010E7CEC0FF01F0E426E710E8E
:100A1200416E1E0EE82EFED7412EFCD7422EFAD78B
:100A220000D041EF06F09405D8A41AEF05F01CEFB0
:100A320005F070EF05F0920E036E010E046E930E38
:100A4200056E010E066E50EC0BF00009D8B42CEFC7
:100A520005F02EEF05F058EF05F0750E2C6E010E25
:100A62002D6E890E2E6E93C12FF0306A0DEC10F0B0
:100A7200000E056E750E066E010E076E000E7CEC02
:100A82000FF0750E2C6E010E2D6E940E2E6E92C10D
:100A92002FF0306A0DEC10F0000E056E750E066E2A
:100AA200010E076E010E7CEC0FF006EF05F0000E52
:100AB200056E7D0E066E0650D8A4080E076E000E57
:100AC2007CEC0FF0000E056E380E066E0650D8A4B0
:100AD200080E076E010E7CEC0FF006EF05F0020E19
:100AE2009419D8A477EF05F079EF05F041EF06F0FD
:100AF2008B6B916B8B6BD4EF05F0000E016E010EC8
:100B0200026E000E046E640E036E000E066EC80EB8
:100B1200056E61EC09F00009D8B492EF05F094EF8C
:100B220005F0C6EF05F0000E076E010E086EB70E57
:100B3200096EE9EC0AF007500810D8B4A3EF05F0EB
:100B4200A5EF05F0C6EF05F0000E0E6E010E0F6E5A
:100B52006D0E106E010E116E870E126E010E136E67
:100B6200640E146E010E156E890E166E010E176E4E
:100B720098EC07F00009D8B4C1EF05F0C3EF05F017
:100B8200C6EF05F0010E0101916F020E426E040ED6
:100B9200416EBA0EE82EFED7412EFCD7422EFAD76E
:100BA20000D001018B2B0A0E8B61DAEF05F0DCEF2E
:100BB20005F0E4EF05F09151D8B4E2EF05F0E4EF6F
:100BC20005F07EEF05F09151D8B4EAEF05F0ECEFB5
:100BD20005F020EF06F0750E2C6E010E2D6EA70E9D
:100BE2002E6E6D0E2F6E010E306E870E316E010E5F
:100BF200326E0DEC10F0000E056E750E066E010ED3
:100C0200076E000E7CEC0FF0750E2C6E010E2D6E31
:100C12009E0E2E6E640E2F6E010E306E890E316E98
:100C2200010E326E0DEC10F0000E056E750E066EA2
:100C3200010E076E010E7CEC0FF036EF06F0000E8F
:100C4200056E480E066E0650D8A4080E076E000EFA
:100C52007CEC0FF0000E056E710E066E0650D8A4E5
:100C6200080E076E010E7CEC0FF0330E426EBB0EC7
:100C7200416EE00EE82EFED7412EFCD7422EFAD767
:100C8200010E01019425016E026A000E0222000E7D
:100C9200046E030E036E10EC0CF001500101946F10
:100CA200AEEF04F000EF00F01E50D96EDA6ADFCF2B
:100CB200F6FF080EF76E0800F550250AD8A464EF77
:100CC20006F066EF06F086EF07F01E50D96EDA6A7C
:100CD200DF2A000E446E000E436E43C048F04568A2
:100CE2004668276A8FEF06F048821E50D96EDA6A8C
:100CF200DF2A8FEF06F0010E276E8FEF06F01E50EF
:100D0200D96EDA6ADFCFF6FF080EF76E0800F550EB
:100D1200300AD8B475EF06F07CEF06F02750D8B44D
:100D220095EF06F097EF06F080EF06F01EC001F097
:100D32001FC002F067EC0CF001C043F002C044F0A7
:100D420044BEA8EF06F0A6EF06F0ADEF06F048802D
:100D5200436C441ED8B0442A1E50D96EDA6ADF5062
:100D6200266E26C0F6FF080EF76E0800F550750ACB
:100D7200D8A4BEEF06F0C0EF06F0EAEF06F01FC0FF
:100D8200D9FF20C0DAFF020EDF26DF5CD96EDA6AF5
:100D9200DECF22F0DECF23F01E50D96EDA6A26288B
:100DA200DF6EDEEF06F01DC015F022C016F023C084
:100DB20017F07BEC0AF097EF07F026C0F6FF080E5B
:100DC200F76E0800F550750AD8B4D4EF06F0EAEFD2
:100DD20006F0276A1E50D96EDA6ADFCFF6FF080ED8
:100DE200F76E0800F550730AD8A4FAEF06F0FCEF8C
:100DF20006F004EF07F01E50D96EDA6ADF2A010E00
:100E0200276E46EF07F01E50D96EDA6ADFCFF6FF83
:100E1200080EF76E0800F5506C0AD8A413EF07F01D
:100E220015EF07F046EF07F01E50D96EDA6ADF5071
:100E3200216E010E212621C0F6FF080EF76E080072
:100E4200F5506C0AD8A428EF07F02AEF07F046EF16
:100E520007F01E50D96EDA6ADF50216E020E21268B
:100E620021C0F6FF080EF76E0800F550730AD8A4E9
:100E72003DEF07F03FEF07F046EF07F01E50D96E47
:100E8200DA6A030EDF2600EF07F02750D8B44CEFE2
:100E920007F04EEF07F061EF07F01DC009F01FC029
:100EA200D9FF20C0DAFF020EDF26DF5CD96EDA6AD4
:100EB200DECF0AF0DECF0BF0B2EC08F097EF07F0CE
:100EC2001E50D96EDA6ADFCFF6FF080EF76E080001
:100ED200F550250AD8A470EF07F072EF07F080EF03
:100EE20007F01E50D96EDA6ADF2A000E026E250E56
:100EF200016E1DC003F0B3EC0BF097EF07F01E502C
:100F0200D96EDA6ADF2A97EF07F01E50D96EDA6AD5
:100F1200DFCFF6FF080EF76E0800F550016E026A89
:100F22001DC003F0B3EC0BF080EF07F012000001DC
:100F3200C56BC66B0EC007F00FC008F0B70E096E86
:100F4200E9EC0AF007500810D8A4AAEF07F0ACEFBA
:100F520007F0AFEF07F0000EB1EF08F0600E016E80
:100F6200026A0EC003F00FC004F0000E066E630E9C
:100F7200056E8AEC0DF00001C36B600E0C6EBE0EA6
:100F82000D6EB9EC0CF00001C76F8DEF08F0C75180
:100F9200D96EDA6A410EDE18D8B4D2EF07F0D5EF77
:100FA20007F0010ED6EF07F0000EC66F84EF08F0CF
:100FB20010501110D8B4E0EF07F0E2EF07F084EF21
:100FC20008F0C651D8B4E8EF07F0EAEF07F084EF73
:100FD20008F010C001F011C002F0C7C003F0046AAB
:100FE200000E066E070E056E8AEC0DF020EE07F07D
:100FF2001050D9261150DA22DF6A84EF08F012501D
:101002001310D8B407EF08F009EF08F084EF08F0E6
:10101200C651D8B40FEF08F011EF08F084EF08F0D2
:10102200C751D96EDA6A12C0E1FF13C0E2FFDFCF07
:10103200E7FF20EE01F01250D9261350DA22DF6AC0
:1010420084EF08F014501510D8B42AEF08F02CEFF2
:1010520008F084EF08F0C651D8B432EF08F034EF4C
:1010620008F084EF08F014C001F015C002F0C7C008
:1010720003F0046A000E066E080E056E8AEC0DF08F
:1010820020EE08F01450D9261550DA22DF6A84EFD8
:1010920008F016501710D8B451EF08F053EF08F0CB
:1010A20084EF08F0C651D8B459EF08F05BEF08F0AE
:1010B20084EF08F0C751D96EDA6A16C0E1FF17C093
:1010C200E2FFDFCFE7FF20EE01F01650D9261750DE
:1010D200DA22DF6A84EF08F0C551020AD8B4C8EFF9
:1010E20007F0010AD8B4D9EF07F0070AD8B400EF25
:1010F20008F0010AD8B423EF08F0030AD8B44AEF83
:1011020008F084EF08F0000E0C6EBE0E0D6EB9EC06
:101112000CF00001C76FC52BC751D8B493EF08F08C
:1011220095EF08F09DEF08F0060EC5659BEF08F0FD
:101132009DEF08F06DEF08F0C46BC651D8B4A4EF70
:1011420008F0A6EF08F0B0EF08F0050EC565ACEFA9
:1011520008F0AEEF08F0B0EF08F0010EC46FC45112
:1011620012000AC012F00BC013F012501310D8A4D0
:10117200BDEF08F0BFEF08F0C5EF08F0B00E126E39
:101182001250D8A4080E136E000E156E000E146EC7
:10119200CDEF08F0144A152A145012240C6E155083
:1011A20013200D6E0CC0F6FF0DC0F7FFF86A070E94
:1011B200F76403D00800F55005D0F6CFE9FFF7CF6A
:1011C200EAFFEF500009D8A4E9EF08F0EBEF08F0CE
:1011D200CBEF08F014C00EF015C00FF043C010F0B2
:1011E20044C011F048B0F8EF08F0FAEF08F031EF20
:1011F20009F006EF09F0000E026E200E016E09C022
:1012020003F0B3EC0BF0144A152A1050145C15507D
:10121200800A0C6E1150800A0C58D8A013EF09F006
:1012220015EF09F0FCEF08F031EF09F012C0F6FFFC
:1012320013C0F7FFF86A070EF76403D00800F550F1
:1012420005D0F6CFE9FFF7CFEAFFEF500C6E0C5056
:10125200016E026A09C003F0B3EC0BF0124A132AC2
:101262000E06D8A00F060E2806E10F28D8A43CEFE0
:1012720009F03EEF09F017EF09F048A043EF09F03B
:1012820045EF09F060EF09F051EF09F0000E026E30
:10129200200E016E09C003F0B3EC0BF0144A152ABC
:1012A2001050145C1550800A0C6E1150800A0C58B4
:1012B200D8A05EEF09F060EF09F047EF09F01200E5
:1012C200000E0E6E000E0D6E0C6AAB980000AB881D
:1012D2006DEF09F0AECF0BF09EBA72EF09F074EF2A
:1012E20009F06BEF09F0000E0A6E000E096EEAEFCC
:1012F20009F09EAA7FEF09F081EF09F0E4EF09F00F
:10130200AECF0FF0ABA288EF09F08AEF09F08EEFB3
:1013120009F0AB98AB88E8EF09F00C50D8A494EF31
:1013220009F096EF09F0ADEF09F0240E0F18D8A4DA
:101332009DEF09F09FEF09F0ADEF09F0010E0C6E81
:101342000D500124D96E0E500220DA6E0FC0DFFF5D
:101352000D4A0E2AE4EF09F00C50D8B4B3EF09F0AD
:10136200B5EF09F0E4EF09F00A0E0F18D8B4BCEF9C
:1013720009F0BEEF09F0CFEF09F0FF0E0324076E6C
:10138200FF0E0420086E07500D5C08500E58D8A0BE
:10139200CDEF09F0CFEF09F0D9EF09F00D5001249C
:1013A200D96E0E500220DA6EDF6A010EF6EF09F0F6
:1013B2000D0E0F18D8B4E0EF09F0E2EF09F0E4EFF8
:1013C20009F0A1EF09F0420EE82EFED700D0094A3B
:1013D2000A2A0550095C06500A58D8A0F3EF09F012
:1013E200F5EF09F07AEF09F0000E12000406D8A01A
:1013F2000506042806E10528D8A402EF0AF004EF46
:101402000AF010EF0AF0000E026E000E016E7AEF83
:101412000AF0014A022A032A0406D8A0050601C0DE
:10142200F6FF02C0F7FFF86A070EF76403D0080060
:10143200F55005D0F6CFE9FFF7CFEAFFEF500009EC
:10144200D8B426EF0AF028EF0AF05EEF0AF003C0E4
:10145200F6FF080EF76E0800F5500009D8B434EF15
:101462000AF036EF0AF05EEF0AF004500510D8B425
:101472003DEF0AF03FEF0AF05EEF0AF003C0F6FF1D
:10148200080EF76E0800F5CF06F001C0F6FF02C0A5
:10149200F7FFF86A070EF76403D00800F55005D08D
:1014A200F6CFE9FFF7CFEAFFEF500618D8B45CEFAA
:1014B2000AF05EEF0AF00AEF0AF001C0F6FF02C07E
:1014C200F7FFF86A070EF76403D00800F55005D05D
:1014D200F6CFE9FFF7CFEAFFEF50066E03C0F6FF43
:1014E200080EF76E0800F550065C016E026AD8A07D
:1014F20002061200010E186E43C019F044C01AF021
:10150200000E1C6E1F0E1B6E0001E76BAFEF0AF0A0
:101512001B06D8A01C061B50C80FD96EDA6A16C06B
:1015220001F017C002F0000E046E0A0E036E05EC05
:101532000EF00150300FDF6E186A1906D8A01A0695
:1015420016C001F017C002F0000E046E0A0E036E00
:10155200CBEC0DF001C016F002C017F01B501C10AE
:10156200D8B4B6EF0AF0B8EF0AF0DDEF0AF0165081
:101572001710D8A4BFEF0AF0C1EF0AF089EF0AF002
:101582001850D8A4C7EF0AF0C9EF0AF089EF0AF0A1
:101592001ABED4EF0AF01A5008E11904D8A0D4EF09
:1015A2000AF0D6EF0AF0DDEF0AF048B2DBEF0AF0FC
:1015B200DDEF0AF089EF0AF015C00EF01B50C80FDC
:1015C2000F6E19C010F01AC011F004EC0DF01200E9
:1015D2000950D8B4EFEF0AF0F1EF0AF04BEF0BF03D
:1015E20009C001F049EC10F001C00AF002C00BF092
:1015F2002AEF0BF007C001F008C002F009C003F0A7
:101602000AC004F00BC005F0F7EC09F0015002101B
:10161200D8A40EEF0BF010EF0BF016EF0BF007C093
:1016220007F008C008F04FEF0BF0010E0724016E1F
:10163200000E0820026E09C0F6FF080EF76E0800C1
:10164200F550036E046A49EC0DF001C007F002C0C8
:1016520008F007500810D8B431EF0BF033EF0BF05D
:101662004BEF0BF007C0F6FF08C0F7FFF86A070E52
:10167200F76403D00800F55005D0F6CFE9FFF7CFA5
:10168200EAFFEF500009D8A449EF0BF04BEF0BF043
:10169200FBEF0AF0000E076E000E086E1200929029
:1016A20080902F0E076EC00EE82EFED7072EFCD7B5
:1016B2008080140EE82EFED7928080B063EF0BF08C
:1016C20065EF0BF0B1EF0BF080A06AEF0BF06CEF5F
:1016D2000BF065EF0BF080B071EF0BF073EF0BF0D6
:1016E2006CEF0BF0106A10500B0FD96EDA6AA5EC92
:1016F2000FF0DF6E102A040E106482EF0BF084EFFD
:101702000BF074EF0BF00F50076E086A0C500BC011
:1017120009F00A6A0926000E0A220D500926000E57
:101722000A220E500926000E0A220750091807E164
:1017320008500A18D8A4A0EF0BF0A2EF0BF0B1EFFB
:101742000BF003C0D9FF04C0DAFF0BC0DFFF05C0F6
:10175200D9FF06C0DAFF0DC0DFFF010EB2EF0BF0BA
:10176200000E12000350D8B4B9EF0BF0BBEF0BF030
:10177200C3EF0BF00350D8A4C1EF0BF0C3EF0BF093
:10178200C8EF0BF0015001EC11F00FEF0CF0035019
:10179200D96EDA6A090ED926DE50DE10D8B4D4EF3B
:1017A2000BF0D6EF0BF0EFEF0BF00350D96EDA6AC5
:1017B200090ED9260350E16EE26A020EE126DE50DE
:1017C200E65CE650800A086EDE50800A0858D8B0FF
:1017D200EDEF0BF0EFEF0BF00FEF0CF00350D96EC3
:1017E200DA6A020ED926DECF04F0DDCF05F003500F
:1017F200D96EDA6ADECF06F0DDCF07F00450062498
:10180200D96E05500720DA6E01C0DFFF0350D96E92
:10181200DA6A020ED926DE2A000EDD221200066ADC
:1018220002BE18EF0CF016EF0CF01EEF0CF0016C7C
:10183200021ED8B0022A010E066E04BE25EF0CF07D
:1018420023EF0CF029EF0CF0036C041ED8B0042A2D
:1018520003500410D8B430EF0CF032EF0CF056EF16
:101862000CF0010E056E3AEF0CF0D89003360436F8
:10187200052A04AE3FEF0CF041EF0CF036EF0CF00E
:101882000350015C04500258D8A04AEF0CF04CEF10
:101892000CF050EF0CF00350015E0450025AD89045
:1018A20004320332052E41EF0CF00650D8B45CEF3F
:1018B2000CF05EEF0CF062EF0CF0016C021ED8B07F
:1018C200022A01C001F002C002F01200000E076EEF
:1018D200000E066E0150D96EDA6ADFCFF6FF080EEF
:1018E200F76E0800F5502A0AD8A47AEF0CF07CEFC4
:1018F2000CF0A1EF0CF00150D96EDA6ADF2A025027
:10190200D96EDA6A020EDF26DF5CD96EDA6ADECFC2
:1019120006F0DECF07F0B4EF0CF00A0E0602F3CFAA
:1019220003F0F4CF04F00702F35004260550032419
:10193200066E000E0420076E0150D96EDA6ADF2AA5
:101942000150D96EDA6ADFCFF6FF080EF76E080093
:10195200F550D00F056E090E0564B2EF0CF0B4EF2E
:101962000CF08EEF0CF006C001F007C002F012007E
:101972000C50D8A4BFEF0CF0C1EF0CF0CEEF0CF07E
:1019820047C00CF00C50D8A4C9EF0CF0CBEF0CF010
:10199200CEEF0CF0000E03EF0DF00CC007F00DC0FF
:1019A20008F037EC0EF007500C260C50D96EDA6AAC
:1019B200DF50D8A4DFEF0CF0E1EF0CF0E6EF0CF013
:1019C200000E476E475003EF0DF00CC007F00DC03C
:1019D20008F069EC0EF00C500724476E4750D96EA0
:1019E200DA6ADF50D8B4F8EF0CF0FAEF0CF001EF3E
:1019F2000DF04750D96EDA6ADF6A472A02EF0DF01E
:101A0200476A0C50120048A009EF0DF00BEF0DF0E1
:101A120011EF0DF00FC009F00EC00AF02BEC10F020
:101A220011BE18EF0DF016EF0DF01CEF0DF0000EC9
:101A3200116E000E106E000E146E000E136E2CEF5F
:101A42000DF0000E026E200E016E0EC003F0B3EC1C
:101A52000BF0134A142A1050135C1450800A126EB1
:101A62001150800A1258D8A039EF0DF03BEF0DF05B
:101A720022EF0DF048B040EF0DF042EF0DF048EFCD
:101A82000DF00FC009F00EC00AF02BEC10F012009E
:101A920001C0F6FF02C0F7FFF86A070EF76403D031
:101AA2000800F55005D0F6CFE9FFF7CFEAFFEF5077
:101AB2000318D8A45FEF0DF061EF0DF067EF0DF0A2
:101AC20001C001F002C002F089EF0DF00150056E75
:101AD2000250066E014A022A05C0F6FF06C0F7FF51
:101AE200F86A070EF76403D00800F55005D0F6CF68
:101AF200E9FFF7CFEAFFEF500009D8A483EF0DF01A
:101B020085EF0DF049EF0DF0000E016E000E026E32
:101B1200120001C007F002C008F0ABEF0DF005069D
:101B2200D8A0060603C0D9FF04C0DAFF034A042A7C
:101B320007C0E1FF08C0E2FF074A082ADFCFE7FF3C
:101B4200E750D8A4A7EF0DF0A9EF0DF0ABEF0DF021
:101B5200BDEF0DF005500610D8A4B2EF0DF0B4EFB2
:101B62000DF090EF0DF0BDEF0DF007C0D9FF08C0EA
:101B7200DAFFDF6A074A082A0506D8A00606052802
:101B820006E10628D8A4C8EF0DF0CAEF0DF0B6EFB3
:101B92000DF01200000E066E000E056E03500410CA
:101BA200D8B4D6EF0DF0D8EF0DF000EF0EF0010E25
:101BB200076EE0EF0DF0D89003360436072A04AE24
:101BC200E5EF0DF0E7EF0DF0DCEF0DF0D890053604
:101BD20006360350015C04500258D8A0F3EF0DF012
:101BE200F5EF0DF0FAEF0DF00350015E0450025ACA
:101BF2000580D89004320332072EE7EF0DF005C0BE
:101C020001F006C002F0120003500410D8B40CEF29
:101C12000EF00EEF0EF032EF0EF0010E056E16EF23
:101C22000EF0D89003360436052A04AE1BEF0EF0F0
:101C32001DEF0EF012EF0EF00350015C045002583B
:101C4200D8A026EF0EF028EF0EF02CEF0EF0035086
:101C5200015E0450025AD89004320332052E1DEF61
:101C62000EF001C001F002C002F01200000E0B6E75
:101C7200000E0A6E40EF0EF0072A0A4A0B2A07509E
:101C8200D96EDA6ADF50D8B449EF0EF04BEF0EF09E
:101C920064EF0EF008C001F00150D8A4080E026EE5
:101CA2000750D96EDA6ADF50096E0950036E046A72
:101CB20049EC0DF001500210D8A462EF0EF064EF6F
:101CC2000EF03DEF0EF00AC007F00BC008F0120054
:101CD200000E0B6E000E0A6E72EF0EF0072A0A4A11
:101CE2000B2A0750D96EDA6ADF50D8B47BEF0EF0B8
:101CF2007DEF0EF096EF0EF008C001F00150D8A46F
:101D0200080E026E0750D96EDA6ADF50096E09506A
:101D1200036E046A49EC0DF001500210D8B494EF3E
:101D22000EF096EF0EF06FEF0EF00AC007F00BC048
:101D320008F01200F8EC10F0D00E93EC10F0000E48
:101D420093EC10F0F8EC10F0D10E93EC10F0010EC1
:101D5200EEEC0FF07F0BDBEC10F007C0D9FF08C0F0
:101D6200DAFFDF6E010EEEEC0FF0DBEC10F005C0D7
:101D7200D9FF06C0DAFFDF6E000EEEEC0FF03F0B6C
:101D8200DBEC10F003C0D9FF04C0DAFFDF6EEFEC2A
:101D920010F01200E1EF0EF003C0F6FF04C0F7FFEF
:101DA200F86A070EF76403D00800F55005D0F6CFA5
:101DB200E9FFF7CFEAFFEF5028EC0FF0034A042ABD
:101DC20003C0F6FF04C0F7FFF86A070EF76403D0FA
:101DD2000800F55005D0F6CFE9FFF7CFEAFFEF5044
:101DE2000009D8A4F7EF0EF0F9EF0EF0CDEF0EF0E8
:101DF2001200F8EC10F0D00E93EC10F0040E93ECFD
:101E020010F0F8EC10F0D10E93EC10F0010EEEECA5
:101E12000FF0DBEC10F003C0D9FF04C0DAFFDF6E75
:101E2200010EEEEC0FF0DBEC10F005C0D9FF06C09E
:101E3200DAFFDF6E000EEEEC0FF0DBEC10F007C005
:101E4200D9FF08C0DAFFDF6EEFEC10F01200026E6D
:101E520002C001F0F00E01168C500F0B01108C6EB7
:101E62008C808C8200008C92030E016E980EE82EFC
:101E7200FED7012EFCD702C001F00F0E0116013A67
:101E8200F00E01168C500F0B01108C6E8C8200002C
:101E92008C92080E016ECA0EE82EFED7012EFCD7D8
:101EA2001200026E02C001F0F00E01168C500F0BF0
:101EB20001108C6E8C908C8200008C92030E016E4D
:101EC200980EE82EFED7012EFCD702C001F00F0EAD
:101ED2000116013AF00E01168C500F0B01108C6E98
:101EE2008C8200008C92080E016ECA0EE82EFED77C
:101EF200012EFCD712000A6E0A50D8B483EF0FF0FD
:101F020085EF0FF090EF0FF005500F0B086E096A86
:101F1200C00E08100B6E09500C6E99EF0FF00550B1
:101F22000F0B086E096A800E08100B6E09500C6EBA
:101F32000BC00DF00D5052EC0FF006C003F007C0BD
:101F420004F0CBEC0EF01200016A026A80A0ACEF42
:101F52000FF0AEEF0FF0A7EF0FF0210EE82EFED735
:101F62000000D890013680A0B9EF0FF0BBEF0FF060
:101F7200BCEF0FF0018080B0C1EF0FF0C3EF0FF0A4
:101F8200BCEF0FF0022A070E0264CAEF0FF0CCEF8B
:101F92000FF0A7EF0FF00150120029C02BF0DBEF7A
:101FA2000FF028C01DF02B0E1E6E2AC01FF0206AF3
:101FB20055EC06F02BC0F6FF080EF76E0800F55040
:101FC2000009D8A4E7EF0FF0E9EF0FF0D2EF0FF01E
:101FD200000E296E000E286E1200016EC586C7A083
:101FE200F5EF0FF0F7EF0FF0F0EF0FF0C9CF02F0BF
:101FF2000150D8B4FFEF0FF002EF10F0C58A03EFE3
:1020020010F0C59AC588C5B809EF10F00BEF10F0B3
:1020120004EF10F0025012002F0E356E2CC036F075
:102022002DC037F0000E396E000E386E000E406E75
:10203200000E3F6E360E286E2EC029F0350E2A6E27
:10204200CEEC0FF038502C24D96E39502D20DA6E98
:10205200DF6A1200000E0D6E000E0C6E3AEF10F0E9
:102062000BC001F0026A0AC003F0B3EC0BF00C4A99
:102072000D2A09500C24D96EDA6ADF500B6E0B5010
:10208200D8A446EF10F048EF10F031EF10F0120034
:1020920001C003F04EEF10F0012A01C0F6FF080E56
:1020A200F76E0800F5500009D8A45AEF10F05CEF63
:1020B20010F04DEF10F00350015C016E026A01BE98
:1020C20002061200956A270E036EF50EE82EFED761
:1020D200032EFCD70000020E52EC0FF0280E52EC39
:1020E2000FF0010E52EC0FF00C0E52EC0FF0060E38
:1020F20052EC0FF0120001EE95F0150EEE6AE806B2
:10210200FDE100EEC8F0200EEE6AE806FDE1486A45
:10211200476A466A456A446A436A000EF86E0001DD
:1021220061EF04F0026E02C0C9FFC7B09BEF10F06E
:102132009DEF10F096EF10F0C5CF01F01F0E0116C3
:10214200D8A4A6EF10F0A8EF10F09DEF10F0120047
:10215200948E080EB86E240EAC6E900EAB6ECF0E3F
:10216200AF6EB6EF10F0AECF01F09EBABBEF10F03B
:10217200BDEF10F0B4EF10F09E9A1200E6EC10F0F2
:10218200F8EC10F0D00E93EC10F0000E93EC10F07F
:10219200000E93EC10F0EFEC10F01200010E52EC76
:1021A2000FF0060E036E300EE82EFED7032EFCD77C
:1021B20000D01200026E02C001F00F0E01160238AA
:1021C2000F0B0A0DF3500124120093809382280E04
:1021D200C66E130EC86E800EC76E1200C584C5B4DB
:1021E200F5EF10F0F7EF10F0F0EF10F01200C580ED
:1021F200C5B0FEEF10F000EF11F0F9EF10F0120091
:022202001200C8
:020000040020DA
:08000000FFFFFFFFFFFFFFFF00
:020000040030CA
:0E00000000091F1EFF0181FF0FC00FE00F401F
:00000001FF
