:020000040000FA
:04000000FEEF3FF0E0
:100800000054656D70657261747572613A0045726D
:10081000726F7220000092908090340E036EF20E80
:10082000E82EFED7032EFCD780801A0EE82EFED7C6
:1008300000D0928080B01FEF04F021EF04F089EF28
:1008400004F0030E0D6EE80E0C6E28EF04F000D0DD
:1008500080B02DEF04F02FEF04F03CEF04F00C0615
:10086000D8A00D060C2806E10D28D8A43AEF04F014
:100870003CEF04F027EF04F0030E0D6EE80E0C6E53
:1008800043EF04F000D080A048EF04F04AEF04F0FA
:1008900057EF04F00C06D8A00D060C2806E10D2831
:1008A000D8A455EF04F057EF04F042EF04F00E6ABD
:1008B0000E50070FD96EDA6A29EC06F0DF6E0E2AA9
:1008C000040E0E6466EF04F068EF04F058EF04F0D5
:1008D0000B50036E046A085007C005F0066A05262F
:1008E000000E062209500526000E06220A50052693
:1008F000000E06220350051807E104500618D8A47C
:1009000084EF04F086EF04F089EF04F009508AEFD9
:1009100004F0FF0E1200720ED36E92800F0EC16EA5
:10092000070EB46E6FEC06F088EC06F0000E056E54
:10093000010E066E0650D8A4080E076E000E52EC8B
:1009400006F00BEC04F0176E1728D8B4AAEF04F0E9
:10095000ACEF04F0D3EF04F017C001F0026A000E10
:10096000046E0A0E036EEEEC04F00150300F116EAF
:1009700017C001F0026A000E046E0A0E036E4FECFF
:1009800005F00150300F126E200E136E430E146EE0
:10099000156A000E056E110E066E076A010E52EC06
:1009A00006F0DEEF04F0000E056E0E0E066E065029
:1009B000D8A4080E076E010E52EC06F0150E106E4C
:1009C0004B0E0F6EBE0EE82EFED70F2EFCD7102E4C
:1009D000FAD700D0A1EF04F0FEEF3FF0066A04BEA4
:1009E000F6EF04F0F4EF04F0FCEF04F0036C041EE7
:1009F000D8B0042A010E066E02BE03EF05F001EF27
:100A000005F009EF05F0016C021ED8B0022A010EB4
:100A1000061A000E086E000E076E03500410D8B4BC
:100A200014EF05F016EF05F03EEF05F0010E056E30
:100A30001EEF05F0D89003360436052A04AE23EFE6
:100A400005F025EF05F01AEF05F0D89007360836C7
:100A50000350015C04500258D8A031EF05F033EF89
:100A600005F038EF05F00350015E0450025A07808C
:100A7000D89004320332052E25EF05F00650D8B485
:100A800044EF05F046EF05F04AEF05F0076C081E4D
:100A9000D8B0082A07C001F008C002F01200066AA8
:100AA00002BE57EF05F055EF05F05DEF05F0016C64
:100AB000021ED8B0022A010E066E04BE64EF05F0D5
:100AC00062EF05F068EF05F0036C041ED8B0042A4D
:100AD00003500410D8B46FEF05F071EF05F095EFF7
:100AE00005F0010E056E79EF05F0D8900336043657
:100AF000052A04AE7EEF05F080EF05F075EF05F0F6
:100B00000350015C04500258D8A089EF05F08BEF28
:100B100005F08FEF05F00350015E0450025AD890A3
:100B200004320332052E80EF05F00650D8B49BEF57
:100B300005F09DEF05F0A1EF05F0016C021ED8B0A5
:100B4000022A01C001F002C002F01200BCEF05F061
:100B500003C0F6FF04C0F7FFF86A070EF76403D07E
:100B60000800F55005D0F6CFE9FFF7CFEAFFEF50C8
:100B7000D5EC05F0034A042A03C0F6FF04C0F7FFD2
:100B8000F86A070EF76403D00800F55005D0F6CFD9
:100B9000E9FFF7CFEAFFEF500009D8A4D2EF05F044
:100BA000D4EF05F0A8EF05F01200026E02C001F0CC
:100BB000F00E01168C500F0B01108C6E8C808C8205
:100BC00000008C92030E016E980EE82EFED7012EC7
:100BD000FCD702C001F0013AF00E0116F00E01162A
:100BE0008C500F0B01108C6E8C8200008C92080EC2
:100BF000016ECA0EE82EFED7012EFCD71200026E3F
:100C000002C001F0F00E01168C500F0B01108C6E1B
:100C10008C908C8200008C92030E016E980EE82E50
:100C2000FED7012EFCD702C001F0013AF00E0116EA
:100C3000F00E01168C500F0B01108C6E8C82000090
:100C40008C92080E016ECA0EE82EFED7012EFCD73C
:100C50001200016A026A80A030EF06F032EF06F05F
:100C60002BEF06F0210EE82EFED70000D8900136BB
:100C700080A03DEF06F03FEF06F040EF06F0018068
:100C800080B045EF06F047EF06F040EF06F0022A8D
:100C9000070E02644EEF06F050EF06F02BEF06F061
:100CA00001501200086E0850D8A459EF06F05BEF0F
:100CB00006F061EF06F005500F0B8009096E65EF35
:100CC00006F005500F0BC009096E0950FFEC05F046
:100CD00006C003F007C004F0A6EC05F01200956A08
:100CE000270E036EF50EE82EFED7032EFCD700006C
:100CF000020EFFEC05F0280EFFEC05F0010EFFECF4
:100D000005F00C0EFFEC05F0060EFFEC05F01200EE
:100D1000010EFFEC05F0060E036E300EE82EFED736
:100D2000032EFCD700D01200000EF86E00018BEFEE
:020D300004F0CD
:047FFC0094EF06F008
:020000040020DA
:08000000FFFFFFFFFFFFFFFF00
:020000040030CA
:0E00000000091F1EFF0181FF0FC00FE00F401F
:00000001FF
