:020000040000FA
:04000000FEEF3FF0E0
:100800000020202020202020202020202020202008
:1008100020005265696E74656E74616E646F2E2E71
:100820002E004572726F722064652073656E736F5F
:10083000720048756D656461643A20256425250061
:1008400054656D703A202564DF4300000C50D96E6A
:10085000DA6ADFCFF6FF080EF76E0800F550250ABA
:10086000D8A435EF04F037EF04F00FEF05F00C508B
:10087000D96EDA6ADF2A000E406E000E3F6E3FC06E
:1008800043F0416842680C50D96EDA6ADF50106E4E
:1008900010C0F6FF080EF76E0800F550640AD8B4D1
:1008A00054EF04F056EF04F064EF04F010C0F6FFCC
:1008B000080EF76E0800F550690AD8A462EF04F03C
:1008C00064EF04F0EAEF04F00D50D96EDA6A020E1C
:1008D000DF26DF5CD96EDA6ADECF11F0DECF12F0F0
:1008E0000C50D96EDA6A1028DF6E200E156E12BE1B
:1008F0007CEF04F07FEF04F0010E80EF04F0000EB7
:100900000F6E15061550600FD96EDA6A11C001F02E
:1009100012C002F0000E046E0A0E036E52EC06F0D6
:1009200001C007F002C008F000EC08F00750300FDB
:10093000DF6E11C001F012C002F0000E046E0A0E4C
:10094000036E90EC05F001C011F002C012F01150DE
:100950001210D8B4AEEF04F0B0EF04F0B8EF04F02A
:100960001550D8A4B6EF04F0B8EF04F081EF04F00E
:100970001550D8B4BEEF04F0C0EF04F0DFEF04F080
:100980000F50D8B4C6EF04F0C8EF04F0DFEF04F066
:1009900015061550600FD96EDA6A2D0EDF6EDFEF87
:1009A00004F01550600FD96EDA6ADF500E6E0E50EB
:1009B000016E026A0BC003F0A9EC06F0152A200EA6
:1009C0001518D8A4E6EF04F0E8EF04F0D1EF04F036
:1009D00020EF05F00C50D96EDA6ADFCFF6FF080E73
:1009E000F76E0800F550250AD8A4F9EF04F0FBEFE4
:1009F00004F009EF05F00C50D96EDA6ADF2A000E18
:100A0000026E250E016E0BC003F0A9EC06F020EF7C
:100A100005F00C50D96EDA6ADF2A20EF05F00C5091
:100A2000D96EDA6ADFCFF6FF080EF76E0800F550D0
:100A3000016E026A0BC003F0A9EC06F009EF05F0A5
:100A40001200720ED36E92800F0EC16E070EB46E3E
:100A50001AEC08F050EC08F03D0E036E3E0E046EEA
:100A6000F1EC05F00009D8B438EF05F03AEF05F0E5
:100A700064EF05F0000E43EC08F0010E43EC08F0C3
:100A80002C0E1A6E320E1B6E3DC01CF01D6AE6EC79
:100A900007F0000E056E2C0E066E076A000EC9ECFC
:100AA00007F02C0E1A6E400E1B6E3EC01CF01D6A25
:100AB000E6EC07F0000E056E2C0E066E076A010EBE
:100AC000C9EC07F080EF05F0000E43EC08F0010ED2
:100AD00043EC08F0000E056E220E066E0650D8A4F8
:100AE000080E076E000EC9EC07F0000E056E120E20
:100AF000066E0650D8A4080E076E010EC9EC07F06A
:100B0000150E2B6E4B0E2A6EBE0EE82EFED72A2E29
:100B1000FCD72B2EFAD700D02CEF05F0FEEF3FF0DC
:100B2000066A04BE98EF05F096EF05F09EEF05F01B
:100B3000036C041ED8B0042A010E066E02BEA5EF97
:100B400005F0A3EF05F0ABEF05F0016C021ED8B085
:100B5000022A010E061A000E086E000E076E0350E0
:100B60000410D8B4B6EF05F0B8EF05F0E0EF05F0EB
:100B7000010E056EC0EF05F0D89003360436052A45
:100B800004AEC5EF05F0C7EF05F0BCEF05F0D89057
:100B9000073608360350015C04500258D8A0D3EF42
:100BA00005F0D5EF05F0DAEF05F00350015E0450D3
:100BB000025A0780D89004320332052EC7EF05F0A1
:100BC0000650D8B4E6EF05F0E8EF05F0ECEF05F0DD
:100BD000076C081ED8B0082A07C001F008C002F050
:100BE0001200929080902F0E056EC00EE82EFED758
:100BF000052EFCD78080140EE82EFED7928080B0A0
:100C000004EF06F006EF06F050EF06F080A00BEFC1
:100C100006F00DEF06F006EF06F080B012EF06F0DA
:100C200014EF06F00DEF06F00E6A0E50090FD96EA4
:100C3000DA6A81EC07F0DF6E0E2A040E0E6423EFF1
:100C400006F025EF06F015EF06F00D50056E066A6A
:100C50000A5009C007F0086A0726000E08220B5048
:100C60000726000E08220C500726000E0822055009
:100C7000071807E106500818D8A441EF06F043EF23
:100C800006F050EF06F00350D96EDA6A09C0DFFFB4
:100C90000450D96EDA6A0BC0DFFF010E51EF06F087
:100CA000000E1200066A02BE5AEF06F058EF06F078
:100CB00060EF06F0016C021ED8B0022A010E066E2B
:100CC00004BE67EF06F065EF06F06BEF06F0036C0D
:100CD000041ED8B0042A03500410D8B472EF06F0F2
:100CE00074EF06F098EF06F0010E056E7CEF06F04B
:100CF000D89003360436052A04AE81EF06F083EF60
:100D000006F078EF06F00350015C04500258D8A0BA
:100D10008CEF06F08EEF06F092EF06F00350015EC6
:100D20000450025AD89004320332052E83EF06F0A5
:100D30000650D8B49EEF06F0A0EF06F0A4EF06F040
:100D4000016C021ED8B0022A01C001F002C002F0FC
:100D500012000350D8B4AFEF06F0B1EF06F0B9EFD0
:100D600006F00350D8A4B7EF06F0B9EF06F0BEEFD7
:100D700006F001505CEC08F0FDEF06F00350D96E70
:100D8000DA6A090ED926DE50DE10D8B4CAEF06F0B2
:100D9000CCEF06F0E5EF06F00350D96EDA6A090EE3
:100DA000D9260350E16EE26A020EE126DE50E65CCF
:100DB000E650800A086EDE50800A0858D8B0E3EF8B
:100DC00006F0E5EF06F0FDEF06F00350D96EDA6AA3
:100DD000020ED926DF50046E0350D96EDA6ADF5056
:100DE0000424D96EDA6A01C0DFFF0350D96EDA6AD3
:100DF000020ED926DE2A000EDD22120014EF07F0C3
:100E000003C0F6FF04C0F7FFF86A070EF76403D0CB
:100E10000800F55005D0F6CFE1FFF7CFE2FFE7502D
:100E20002DEC07F0034A042A03C0F6FF04C0F7FFC5
:100E3000F86A070EF76403D00800F55005D0F6CF26
:100E4000E1FFF7CFE2FFE7500009D8A42AEF07F04F
:100E50002CEF07F000EF07F01200026E02C001F065
:100E6000F00E01168C500F0B01108C6E8C808C8252
:100E700000008C92030E016E980EE82EFED7012E14
:100E8000FCD702C001F0013AF00E0116F00E011677
:100E90008C500F0B01108C6E8C8200008C92080E0F
:100EA000016ECA0EE82EFED7012EFCD71200026E8C
:100EB00002C001F0F00E01168C500F0B01108C6E69
:100EC0008C908C8200008C92030E016E980EE82E9E
:100ED000FED7012EFCD702C001F0013AF00E011638
:100EE000F00E01168C500F0B01108C6E8C820000DE
:100EF0008C92080E016ECA0EE82EFED7012EFCD78A
:100F00001200016A026A80A088EF07F08AEF07F0FA
:100F100083EF07F0210EE82EFED70000D8900136AF
:100F200080A095EF07F097EF07F098EF07F00180AA
:100F300080B09DEF07F09FEF07F098EF07F0022ACF
:100F4000070E0264A6EF07F0A8EF07F083EF07F0A3
:100F50000150120017C019F0B6EF07F016C00BF0E1
:100F6000190E0C6E18C00DF026EC04F019C0F6FF37
:100F7000080EF76E0800F5500009D8A4C2EF07F07C
:100F8000C4EF07F0AEEF07F0000E176E000E166EFE
:100F90001200086E0850D8A4D0EF07F0D2EF07F087
:100FA000D8EF07F005500F0B8009096EDCEF07F052
:100FB00005500F0BC009096E095057EC07F006C029
:100FC00003F007C004F0FEEC06F012001C0E1E6ECB
:100FD0001AC01FF0000E226E000E216E000E296E48
:100FE000000E286E1F0E166E1BC017F01E0E186E18
:100FF000AAEC07F01A502124D96EDA6ADF6A1200CF
:1010000008BE05EF08F007EF08F00DEF08F007C085
:1010100007F008C008F019EF08F007C009F008C091
:101020000AF0091E0A1E094A0A2A09C007F00AC066
:1010300008F01200956A270E036EF50EE82EFED713
:10104000032EFCD70000020E57EC07F0280E57ECD9
:1010500007F0010E57EC07F00C0E57EC07F0060EE8
:1010600057EC07F0120000EE60F0200EEE6AE80682
:10107000FDE1436A426A416A406A3F6A000EF86EC7
:10108000000121EF05F00A6E000E056E010E066EDE
:101090000650D8A4080E076E0A50C9EC07F01200DB
:1010A000010E57EC07F0060E036E300EE82EFED749
:0A10B000032EFCD700D0120012003E
:047FFC0033EF08F067
:020000040020DA
:08000000FFFFFFFFFFFFFFFF00
:020000040030CA
:0E00000000091F1EFF0181FF0FC00FE00F401F
:00000001FF
