:020000040000FA
:04000000FEEF3FF0E0
:100800000054656D70657261747572613A0045726D
:05081000726F72000090
:10081600720ED36E92800F0EC16E070EB46E32EC5E
:1008260006F0000E056E010E066E0650D8A4080EE0
:10083600076E000E12EC06F024EC05F0116E11287E
:10084600D8B428EF04F02AEF04F051EF04F011C0F9
:1008560001F0026A000E046E0A0E036E6CEC04F0E0
:100866000150300F0C6E11C001F0026A000E046ECA
:100876000A0E036ECDEC04F00150300F0D6E200E03
:100886000E6E430E0F6E106A000E056E0C0E066E8F
:10089600076A010E12EC06F05CEF04F0000E056E1E
:1008A6000E0E066E0650D8A4080E076E010E12EC48
:1008B60006F0150E0B6E4B0E0A6EBE0EE82EFED718
:1008C6000A2EFCD70B2EFAD700D01FEF04F0FEEF4E
:1008D6003FF0066A04BE74EF04F072EF04F07AEF9C
:1008E60004F0036C041ED8B0042A010E066E02BE84
:1008F60081EF04F07FEF04F087EF04F0016C021E35
:10090600D8B0022A010E061A000E086E000E076EF7
:1009160003500410D8B492EF04F094EF04F0BCEF47
:1009260004F0010E056E9CEF04F0D89003360436F1
:10093600052A04AEA1EF04F0A3EF04F098EF04F04B
:10094600D890073608360350015C04500258D8A0E8
:10095600AFEF04F0B1EF04F0B6EF04F00350015E20
:100966000450025A0780D89004320332052EA3EFB2
:1009760004F00650D8B4C2EF04F0C4EF04F0C8EF98
:1009860004F0076C081ED8B0082A07C001F008C09A
:1009960002F01200066A02BED5EF04F0D3EF04F0AF
:1009A600DBEF04F0016C021ED8B0022A010E066EBF
:1009B60004BEE2EF04F0E0EF04F0E6EF04F0036CAF
:1009C600041ED8B0042A03500410D8B4EDEF04F086
:1009D600EFEF04F013EF05F0010E056EF7EF04F0EC
:1009E600D89003360436052A04AEFCEF04F0FEEF79
:1009F60004F0F3EF04F00350015C04500258D8A051
:100A060007EF05F009EF05F00DEF05F00350015E65
:100A16000450025AD89004320332052EFEEF04F039
:100A26000650D8B419EF05F01BEF05F01FEF05F0DF
:100A3600016C021ED8B0022A01C001F002C002F009
:100A46001200929080902F0E036EC00EE82EFED7F5
:100A5600032EFCD78080140EE82EFED7928080B03D
:100A660037EF05F039EF05F064EF05F080A03EEFB3
:100A760005F040EF05F039EF05F080B045EF05F0E1
:100A860047EF05F040EF05F0E9EC05F0036EE9EC01
:100A960005F0046EE9EC05F0056EE9EC05F00524B9
:100AA60004240324066EE9EC05F00618D8A45EEFCC
:100AB60005F060EF05F064EF05F0E9EC05F065EF91
:100AC60005F0FF0E12007CEF05F003C0F6FF04C030
:100AD600F7FFF86A070EF76403D00800F55005D053
:100AE600F6CFE9FFF7CFEAFFEF5095EC05F0034AA2
:100AF600042A03C0F6FF04C0F7FFF86A070EF7647E
:100B060003D00800F55005D0F6CFE9FFF7CFEAFF8E
:100B1600EF500009D8A492EF05F094EF05F068EFC6
:100B260005F01200026E02C001F0F00E01168C50A4
:100B36000F0B01108C6E8C808C8200008C92030E41
:100B4600016E980EE82EFED7012EFCD702C001F0EA
:100B5600013AF00E0116F00E01168C500F0B011023
:100B66008C6E8C8200008C92080E016ECA0EE82EE6
:100B7600FED7012EFCD71200026E02C001F0F00E65
:100B860001168C500F0B01108C6E8C908C8200001D
:100B96008C92030E016E980EE82EFED7012EFCD71E
:100BA60002C001F0013AF00E0116F00E01168C504B
:100BB6000F0B01108C6E8C8200008C92080E016E59
:100BC600CA0EE82EFED7012EFCD71200016A026A71
:100BD60080A0F0EF05F0F2EF05F0EBEF05F0170E51
:100BE600E82EFED70000D890013680A0FDEF05F074
:100BF600FFEF05F000EF06F0018080B005EF06F08C
:100C060007EF06F000EF06F0022A070E02640EEF69
:100C160006F010EF06F0EBEF05F001501200086E3B
:100C2600020E086019EF06F01BEF06F024EF06F03F
:100C360005500F0B8009096E0950BFEC05F02BEF2C
:100C460006F005500F0BC009096E0950BFEC05F000
:100C560006C003F007C004F066EC05F01200956AC2
:100C6600270E036EF50EE82EFED7032EFCD70000E6
:100C7600020EBFEC05F0280EBFEC05F0010EBFEC2E
:100C860005F00C0EBFEC05F0060EBFEC05F01200E9
:0A0C9600000EF86E00010BEF04F0F1
:047FFC004BEF06F051
:020000040020DA
:08000000FFFFFFFFFFFFFFFF00
:020000040030CA
:0E00000000091F1EFF0181FF0FC00FE00F401F
:00000001FF
