:020000040000FA
:04000000B0EF07F066
:1008000000555341525420536F66747761726520CE
:10081000696E69636961646F20656E205242302F92
:100820005242310D0A00436F6D616E646F20696E34
:1008300076E16C69646F2E205573612031206F2042
:10084000300D0A00526563696269646F3A2025635E
:1008500020282564290D0A004C454420454E434577
:100860004E4449444F0D0A004C45442041504147F5
:0708700041444F0D0A000096
:100878000C50D96EDA6ADFCFF6FF080EF76E080063
:10088800F550250AD8A44BEF04F04DEF04F02EEFF5
:1008980005F00C50D96EDA6ADF2A000E506E000E91
:1008A8004F6E4FC053F0516852680C50D96EDA6AD7
:1008B800DFCFF6FF080EF76E0800F550630AD8A4DC
:1008C80068EF04F06AEF04F081EF04F00C50D96E81
:1008D800DA6ADF2A0D50D96EDA6ADF50DF2ADF2A9A
:1008E800D96EDA6ADF50156E15C001F0026A0BC0C6
:1008F80003F078EC06F03FEF05F00C50D96EDA6A99
:10090800DF50106E10C0F6FF080EF76E0800F550A5
:10091800640AD8B492EF04F094EF04F0A2EF04F064
:1009280010C0F6FF080EF76E0800F550690AD8A443
:10093800A0EF04F0A2EF04F028EF05F00D50D96EF7
:10094800DA6A020EDF26DF5CD96EDA6ADECF11F0D2
:10095800DECF12F00C50D96EDA6A1028DF6E200E46
:10096800156E12BEBAEF04F0BDEF04F0010EBEEF33
:1009780004F0000E0F6E15061550600FD96EDA6A76
:1009880011C001F012C002F0000E046E0A0E036ED0
:1009980021EC06F001C007F002C008F096EC07F061
:1009A8000750300FDF6E11C001F012C002F0000EC8
:1009B800046E0A0E036EC0EC05F001C011F002C00F
:1009C80012F011501210D8B4ECEF04F0EEEF04F06E
:1009D800F6EF04F01550D8A4F4EF04F0F6EF04F0A5
:1009E800BFEF04F01550D8B4FCEF04F0FEEF04F0AC
:1009F8001DEF05F00F50D8B404EF05F006EF05F031
:100A08001DEF05F015061550600FD96EDA6A2D0E28
:100A1800DF6E1DEF05F01550600FD96EDA6ADF50F2
:100A28000E6E0E50016E026A0BC003F078EC06F0F1
:100A3800152A200E1518D8A424EF05F026EF05F086
:100A48000FEF05F03FEF05F00C50D96EDA6ADF2A98
:100A58003FEF05F00C50D96EDA6ADFCFF6FF080ECB
:100A6800F76E0800F550016E026A0BC003F078ECCF
:100A780006F028EF05F01200720ED36E956A8C6AA4
:100A8800C0EC07F0030E2D6E080E2C6E770EE82EC4
:100A9800FED72C2EFCD72D2EFAD70000010E056E9E
:100AA8000550D8A4080E066E01EC07F0CDEC06F050
:100AB8004E6E2E0E1A6E440E1B6E4EC01CF01D6A32
:100AC8004EC01EF01F6A7CEC07F02E0E056E066AFB
:100AD80001EC07F0310E4E18D8A475EF05F077EF4A
:100AE80005F082EF05F08C80580E056E0550D8A4ED
:100AF800080E066E01EC07F0B0EF05F0300E4E1848
:100B0800D8A489EF05F08BEF05F096EF05F08C90EF
:100B1800680E056E0550D8A4080E066E01EC07F0A5
:100B2800B0EF05F00D0E4E18D8B49DEF05F09FEF0D
:100B380005F0B0EF05F00A0E4E18D8B4A6EF05F090
:100B4800A8EF05F0B0EF05F0260E056E0550D8A405
:100B5800080E066E01EC07F0020E2D6E860E2C6E46
:100B6800990EE82EFED72C2EFCD72D2EFAD7000092
:100B78005AEF05F000EF00F0066A04BEC8EF05F072
:100B8800C6EF05F0CEEF05F0036C041ED8B0042ABA
:100B9800010E066E02BED5EF05F0D3EF05F0DBEFD0
:100BA80005F0016C021ED8B0022A010E061A000ECA
:100BB800086E000E076E03500410D8B4E6EF05F077
:100BC800E8EF05F010EF06F0010E056EF0EF05F006
:100BD800D89003360436052A04AEF5EF05F0F7EF92
:100BE80005F0ECEF05F0D890073608360350015CA5
:100BF80004500258D8A003EF06F005EF06F00AEFFC
:100C080006F00350015E0450025A0780D89004325F
:100C18000332052EF7EF05F00650D8B416EF06F0AC
:100C280018EF06F01CEF06F0076C081ED8B0082A6B
:100C380007C001F008C002F01200066A02BE29EFE0
:100C480006F027EF06F02FEF06F0016C021ED8B071
:100C5800022A010E066E04BE36EF06F034EF06F0E7
:100C68003AEF06F0036C041ED8B0042A03500410AF
:100C7800D8B441EF06F043EF06F067EF06F0010E37
:100C8800056E4BEF06F0D89003360436052A04AEFD
:100C980050EF06F052EF06F047EF06F00350015C04
:100CA80004500258D8A05BEF06F05DEF06F061EF44
:100CB80006F00350015E0450025AD8900432033201
:100CC800052E52EF06F00650D8B46DEF06F06FEF20
:100CD80006F073EF06F0016C021ED8B0022A01C0BC
:100CE80001F002C002F012000350D8B47EEF06F003
:100CF80080EF06F088EF06F00350D8A486EF06F0E0
:100D080088EF06F08DEF06F00150C4EC07F0CCEF49
:100D180006F00350D96EDA6A090ED926DE50DE10C5
:100D2800D8B499EF06F09BEF06F0B4EF06F0035045
:100D3800D96EDA6A090ED9260350E16EE26A020E0C
:100D4800E126DE50E65CE650800A086EDE50800A36
:100D58000858D8B0B2EF06F0B4EF06F0CCEF06F0C2
:100D68000350D96EDA6A020ED926DF50046E03509A
:100D7800D96EDA6ADF500424D96EDA6A01C0DFFF5F
:100D88000350D96EDA6A020ED926DE2A000EDD2259
:100D98001200036A81B2D3EF06F0D5EF06F0CEEF6A
:100DA80006F0680EE82EFED7046A81A2DEEF06F090
:100DB800E0EF06F0EEEF06F004C001F0010E026E5F
:100DC800012AE9EF06F0D8900236012EE7EF06F087
:100DD80002500312450EE82EFED70000042A070E23
:100DE8000464F9EF06F0FBEF06F0D9EF06F0450EC4
:100DF800E82EFED700000350120017EF07F005C0D9
:100E0800F6FF06C0F7FFF86A070EF76403D008007C
:100E1800F55005D0F6CFE9FFF7CFEAFFEF5030ECF9
:100E280007F0054A062A05C0F6FF06C0F7FFF86A6C
:100E3800070EF76403D00800F55005D0F6CFE9FF98
:100E4800F7CFEAFFEF500009D8A42DEF07F02FEFF6
:100E580007F003EF07F01200036E8A90450EE82EA4
:100E6800FED70000046A04C001F003C002F0012AA2
:100E780040EF07F0D8900232012E3EEF07F0010E46
:100E880002168A500218FE0B02188A6E450EE82ECA
:100E9800FED70000042A070E046455EF07F057EF49
:100EA80007F037EF07F08A80450EE82EFED70000DE
:100EB800120017C019F069EF07F016C00BF0190EF1
:100EC8000C6E18C00DF03CEC04F019C0F6FF080ECB
:100ED800F76E0800F5500009D8A475EF07F077EF12
:100EE80007F061EF07F0000E176E000E166E120085
:100EF8001C0E206E1AC021F0000E246E000E236E08
:100F0800000E2B6E000E2A6E210E166E1BC017F0F7
:100F1800200E186E5DEC07F01A502324D96EDA6A99
:100F2800DF6A120008BE9BEF07F09DEF07F0A3EF02
:100F380007F007C007F008C008F0AFEF07F007C0D8
:100F480009F008C00AF0091E0A1E094A0A2A09C03F
:100F580007F00AC008F0120000EE60F0200EEE6AFA
:100F6800E806FDE1536A526A516A506A4F6A000EF8
:100F7800F86E000140EF05F0939093828A8012008A
:020F8800120055
:020000040020DA
:08000000FFFFFFFFFFFFFFFF00
:020000040030CA
:0E00000000091F1EFF0181FF0FC00FE00F401F
:00000001FF
