:020000040000FA
:0400000007EF00F016
:0A000800048201ED04F03DEF04F066
:1008000000000600F2A207EF04F009EF04F01CEF6D
:1008100004F01EEC04F08CB010EF04F013EF04F0C1
:10082000010E14EF04F0000EFF0A036E8C50031843
:10083000FE0B03188C6EF29204921100026A1A0EDB
:10084000016EF80EE82EFED7012EFCD700D0022A4A
:10085000090E02642EEF04F030EF04F01FEF04F0F5
:100860001200720ED36E956A8C6AF28EF288F18C49
:100870008C8039EF04F007EF00F00490049200013F
:0408800031EF04F060
:020000040020DA
:08000000FFFFFFFFFFFFFFFF00
:020000040030CA
:0E00000000081F1EFF8181FF0FC00FE00F40A0
:00000001FF
