:020000040000FA
:04000000BAEF0AF059
:100800000046656368613A253032642F25303264D2
:100810002F32302530326400486F72613A20253023
:1008200032643A253032643A2530326400436F6EC8
:100830006669677572616E646F205254430052544A
:100840004320646574656E69646F0000010E1A6E62
:1008500017BE2DEF04F030EF04F0010E31EF04F07D
:10086000000E1D6E5AC01BF05BC01CF01D50D8B4AA
:100870003CEF04F03EEF04F055EF04F01B06D8A067
:100880001C061D50D8A447EF04F049EF04F04FEFC9
:1008900004F0000E196E2B0E186E53EF04F0000ECC
:1008A000196E2D0E186E18C01DF0000E1F6E1F0E53
:1008B0001E6E00017F6B89EF04F01E06D8A01F0694
:1008C0001E50600FD96EDA6A16C001F017C002F030
:1008D000000E046E0A0E036E28EC07F001C007F04C
:1008E00002C008F074EC0AF00750300FDF6E1A6A8D
:1008F0001B06D8A01C0616C001F017C002F0000E9F
:10090000046E0A0E036E6EEC06F001C016F002C013
:1009100017F01FBE94EF04F01F5008E11E04D8A08A
:1009200094EF04F096EF04F0BBEF04F016501710AC
:10093000D8A49DEF04F09FEF04F05DEF04F01A508F
:10094000D8A4A5EF04F0A7EF04F05DEF04F01CBEFF
:10095000B2EF04F01C5008E11B04D8A0B2EF04F081
:10096000B4EF04F0BBEF04F05EB2B9EF04F0BBEFFC
:1009700004F05DEF04F01D50D8B4C1EF04F0C3EFF4
:1009800004F0CCEF04F01E06D8A01F061E50600F26
:10099000D96EDA6A1DC0DFFF15C00EF01E50600F61
:1009A0000F6E1BC010F01CC011F0CAEC08F0120052
:1009B0002150D96EDA6ADFCFF6FF080EF76E080015
:1009C000F550250AD8A4E7EF04F0E9EF04F072EF40
:1009D00005F02150D96EDA6ADF2A000E5B6E000E38
:1009E0005A6E5AC05EF05C685D68276A12EF05F0C7
:1009F0005E822150D96EDA6ADF2A12EF05F0010E0D
:100A0000276E12EF05F02150D96EDA6ADFCFF6FFBC
:100A1000080EF76E0800F550300AD8B4F8EF04F06D
:100A2000FFEF04F02750D8B418EF05F01AEF05F0E7
:100A300003EF05F021C001F022C002F0D4EC07F072
:100A400001C05AF002C05BF05BBE2BEF05F029EF4E
:100A500005F030EF05F05E805A6C5B1ED8B05B2A63
:100A60002150D96EDA6ADF50286E28C0F6FF080ED2
:100A7000F76E0800F550640AD8B441EF05F043EF73
:100A800005F051EF05F028C0F6FF080EF76E0800DC
:100A9000F550690AD8A44FEF05F051EF05F06CEF5F
:100AA00005F02250D96EDA6A020EDF26DF5CD96EBD
:100AB000DA6ADECF23F0DECF24F02150D96EDA6A75
:100AC0002828DF6E20C015F023C016F024C017F0D0
:100AD00026EC04F083EF05F02150D96EDA6ADF2AA4
:100AE00083EF05F02150D96EDA6ADFCFF6FF080EEA
:100AF000F76E0800F550016E026A20C003F07FEC2B
:100B000007F06CEF05F01200700ED312D350FC0BFF
:100B10000209D36E0F0EC16E8EEC0AF0CAEC0AF019
:100B2000A00E0E6E860E0F6E010E106E000E116E70
:100B30003EEC09F0000E056E2D0E066E0650D8A490
:100B4000080E076E000EBEEC09F0CFEC06F0320E78
:100B50000E6E000E0F6E050E106E050E116E190E44
:100B6000126E0A0E26EC08F0CAEC0AF0540E0E6E55
:100B7000550E0F6E560E106E570E116E580E126EE9
:100B8000590E136E01EC06F0430E2D6E010E2E6E03
:100B900057C02FF0306A58C031F0326A59C033F074
:100BA000346A5AEC0AF0000E056E430E066E076AB0
:100BB000000EBEEC09F0430E2D6E180E2E6E54C0C2
:100BC0002FF0306A55C031F0326A56C033F0346AC3
:100BD0005AEC0AF0000E056E430E066E076A010E0F
:100BE000BEEC09F00B0E426E260E416E5E0EE82E34
:100BF000FED7412EFCD7422EFAD7B6EF05F000EF14
:100C000000F0ECEC0AF0000E0D6ED00E0C6EE1EC74
:100C10000AF0000E0D6E000E0C6EE1EC0AF0F0EC26
:100C20000AF0000E0D6ED10E0C6EE1EC0AF01050C1
:100C3000D96EDA6A000E036E010E026E3FEC0AF006
:100C40000250D6EC0AF0DF6E0F50D96EDA6A000E51
:100C5000036E010E026E3FEC0AF00250D6EC0AF071
:100C6000DF6E0E50D96EDA6A000E036E010E026E50
:100C70003FEC0AF00250D6EC0AF0DF6E000E036E75
:100C8000010E026E3FEC0AF01150D96EDA6A000EC6
:100C9000036E010E026E3FEC0AF00250D6EC0AF031
:100CA000DF6E1250D96EDA6A000E036E010E026E0C
:100CB0003FEC0AF00250D6EC0AF0DF6E1350D96E0A
:100CC000DA6A000E036E000E026E3FEC0AF002506C
:100CD000D6EC0AF0DF6EE8EC0AF01200066A04BEF9
:100CE00076EF06F074EF06F07CEF06F0036C041E5E
:100CF000D8B0042A010E066E02BE83EF06F081EF23
:100D000006F089EF06F0016C021ED8B0022A010E2F
:100D1000061A000E086E000E076E03500410D8B4B9
:100D200094EF06F096EF06F0BEEF06F0010E056EAA
:100D30009EEF06F0D89003360436052A04AEA3EFE2
:100D400006F0A5EF06F09AEF06F0D89007360836C1
:100D50000350015C04500258D8A0B1EF06F0B3EF85
:100D600006F0B8EF06F00350015E0450025A078007
:100D7000D89004320332052EA5EF06F00650D8B401
:100D8000C4EF06F0C6EF06F0CAEF06F0076C081EC7
:100D9000D8B0082A07C001F008C002F01200ECEC3D
:100DA0000AF0000E0D6ED00E0C6EE1EC0AF0000E93
:100DB0000D6E000E0C6EE1EC0AF0F0EC0AF0000E85
:100DC0000D6ED10E0C6EE1EC0AF0000E036E000EFB
:100DD000026E3FEC0AF00250106EE8EC0AF010AE22
:100DE000F4EF06F0F6EF06F027EF07F0CAEC0AF092
:100DF000000E056E3E0E066E0650D8A4080E076E55
:100E0000000EBEEC09F00B0E0F6E260E0E6E5E0E7F
:100E1000E82EFED70E2EFCD70F2EFAD7ECEC0AF0F8
:100E2000000E0D6ED00E0C6EE1EC0AF0000E0D6E91
:100E3000000E0C6EE1EC0AF010C00EF07F0E0E16E4
:100E40000E500C6E0D6AE1EC0AF0E8EC0AF01200AC
:100E5000066A02BE30EF07F02EEF07F036EF07F01C
:100E6000016C021ED8B0022A010E066E04BE3DEFD0
:100E700007F03BEF07F041EF07F0036C041ED8B01A
:100E8000042A03500410D8B448EF07F04AEF07F0E3
:100E90006EEF07F0010E056E52EF07F0D8900336A3
:100EA0000436052A04AE57EF07F059EF07F04EEF6E
:100EB00007F00350015C04500258D8A062EF07F01D
:100EC00064EF07F068EF07F00350015E0450025A28
:100ED000D89004320332052E59EF07F00650D8B4EB
:100EE00074EF07F076EF07F07AEF07F0016C021E5F
:100EF000D8B0022A01C001F002C002F01200035073
:100F0000D8B485EF07F087EF07F08FEF07F00350B5
:100F1000D8A48DEF07F08FEF07F094EF07F00150A2
:100F2000F4EC0AF0D3EF07F00350D96EDA6A090E39
:100F3000D926DE50DE10D8B4A0EF07F0A2EF07F0FC
:100F4000BBEF07F00350D96EDA6A090ED9260350B9
:100F5000E16EE26A020EE126DE50E65CE650800AAF
:100F6000086EDE50800A0858D8B0B9EF07F0BBEF22
:100F700007F0D3EF07F00350D96EDA6A020ED926D4
:100F8000DF50046E0350D96EDA6ADF500424D96E44
:100F9000DA6A01C0DFFF0350D96EDA6A020ED92681
:100FA000DE2A000EDD221200000E076E000E066E15
:100FB0000150D96EDA6ADFCFF6FF080EF76E08002F
:100FC000F5502A0AD8A4E7EF07F0E9EF07F00EEF93
:100FD00008F00150D96EDA6ADF2A0250D96EDA6A57
:100FE000020EDF26DF5CD96EDA6ADECF06F0DECFD6
:100FF00007F021EF08F00A0E0602F3CF03F0F4CF5A
:1010000004F00702F350042605500324066E000E78
:101010000420076E0150D96EDA6ADF2A0150D96EBA
:10102000DA6ADFCFF6FF080EF76E0800F550D00F32
:10103000056E090E05641FEF08F021EF08F0FBEFC5
:1010400007F006C001F007C002F01200146E0F9EF8
:10105000ECEC0AF0000E0D6ED00E0C6EE1EC0AF016
:10106000000E0D6E000E0C6EE1EC0AF00F5024EC39
:101070000AF0136E13500C6E0D6AE1EC0AF00E507C
:1010800024EC0AF0136E13500C6E0D6AE1EC0AF0BA
:10109000145024EC0AF0136E13500C6E0D6AE1EC40
:1010A0000AF0010E24EC0AF0136E13500C6E0D6A58
:1010B000E1EC0AF0105024EC0AF0136E13500C6EA1
:1010C0000D6AE1EC0AF0115024EC0AF0136E135093
:1010D0000C6E0D6AE1EC0AF0125024EC0AF0136E6B
:1010E00013500C6E0D6AE1EC0AF0E8EC0AF0120005
:1010F000000E096E000E0A6E000E0B6E000E0C6ED6
:101100000550061007100810D8B489EF08F08BEFCF
:1011100008F0C1EF08F0010E0D6E95EF08F0D890C1
:1011200005360636073608360D2A08AE9AEF08F05F
:101130009CEF08F08FEF08F0D89009360A360B368E
:101140000C360550015C06500258075003580850F1
:101150000458D8A0AEEF08F0B0EF08F0B9EF08F0EF
:101160000550015E0650025A0750035A0850045AAF
:101170000980D89008320732063205320D2E9CEFD6
:1011800008F009C001F00AC002F00BC003F00CC067
:1011900004F012005EA0CFEF08F0D1EF08F0D7EF17
:1011A00008F00FC009F00EC00AF006EC0AF011BEFC
:1011B000DEEF08F0DCEF08F0E2EF08F0000E116E51
:1011C000000E106E000E146E000E136EF2EF08F09B
:1011D000000E026E200E016E0EC003F07FEC07F0D1
:1011E000134A142A1050135C1450800A126E1150C6
:1011F000800A1258D8A0FFEF08F001EF09F0E8EFDD
:1012000008F05EB006EF09F008EF09F00EEF09F004
:101210000FC009F00EC00AF006EC0AF0120025EF2C
:1012200009F003C0F6FF04C0F7FFF86A070EF76481
:1012300003D00800F55005D0F6CFE1FFF7CFE2FF6D
:10124000E7506AEC09F0034A042A03C0F6FF04C021
:10125000F7FFF86A070EF76403D00800F55005D0D1
:10126000F6CFE1FFF7CFE2FFE7500009D8A43BEF4C
:1012700009F03DEF09F011EF09F01200938093821D
:10128000280EC66EC56A000E016E120E026E7A0E30
:10129000036E000E046E0EC012F00FC013F010C0EB
:1012A00014F011C015F0020ED89012361336143611
:1012B0001536E82E54EF09F012C005F013C006F001
:1012C00014C007F015C008F078EC08F00104C86EEF
:1012D000C76A1200026E02C001F0F00E01168C50B7
:1012E0000F0B01108C6E8C808C8200008C92030E90
:1012F000016E980EE82EFED7012EFCD702C001F039
:101300000F0E0116013AF00E01168C500F0B011052
:101310008C6E8C8200008C92080E016ECA0EE82E34
:10132000FED7012EFCD71200026E02C001F0F00EB3
:1013300001168C500F0B01108C6E8C908C8200006B
:101340008C92030E016E980EE82EFED7012EFCD76C
:1013500002C001F00F0E0116013AF00E01168C507A
:101360000F0B01108C6E8C8200008C92080E016EA7
:10137000CA0EE82EFED7012EFCD712000A6E0A50C4
:10138000D8B4C5EF09F0C7EF09F0D2EF09F0055066
:101390000F0B086E096AC00E08100B6E09500C6E18
:1013A000DBEF09F005500F0B086E096A800E08107C
:1013B0000B6E09500C6E0BC00DF00D5094EC09F043
:1013C00006C003F007C004F00FEC09F012002AC0B9
:1013D0002CF0F3EF09F029C020F02C0E216E2BC069
:1013E00022F0D8EC04F02CC0F6FF080EF76E0800CF
:1013F000F5500009D8A4FFEF09F001EF0AF0EBEF78
:1014000009F0000E2A6E000E296E1200000E0D6EFD
:10141000000E0C6E15EF0AF00BC001F0026A0AC054
:1014200003F07FEC07F00C4A0D2A09500C24D96E0A
:10143000DA6ADF500B6E0B50D8A421EF0AF023EFCD
:101440000AF00CEF0AF012000B6E0BC001F0026AFA
:10145000000E046E0A0E036E28EC07F001C009F0BE
:1014600002C00AF00BC001F0026A000E046E0A0E00
:10147000036E6EEC06F00138F00B09101200A7ECB9
:101480000AF0C586A7EC0AF0C9CF04F0056AA7ECFC
:101490000AF002500310D8B450EF0AF053EF0AF0EC
:1014A000C58A54EF0AF0C59AC58804C002F005C089
:1014B00003F012002F0E356E2DC036F0000E396E7F
:1014C000000E386E000E406E000E3F6E360E296E16
:1014D0002EC02AF0350E2B6EE7EC09F02D50382483
:1014E000D96EDA6ADF6A120008BE79EF0AF07BEF84
:1014F0000AF081EF0AF007C007F008C008F08DEF8E
:101500000AF007C009F008C00AF0091E0A1E094ABD
:101510000A2A09C007F00AC008F01200956A270ECF
:10152000036EF50EE82EFED7032EFCD70000020E48
:1015300094EC09F0280E94EC09F0010E94EC09F0FB
:101540000C0E94EC09F0060E94EC09F01200C5CFD5
:1015500001F01F0E0116D8A4B0EF0AF0B2EF0AF0A6
:10156000A7EF0AF0C7B4B7EF0AF0B9EF0AF0A7EF98
:101570000AF0120000EE60F0200EEE6AE806FDE1CF
:101580005E6A5D6A5C6A5B6A5A6A000EF86E000108
:1015900084EF05F0010E94EC09F0060E036E300E98
:1015A000E82EFED7032EFCD700D01200026E02C038
:1015B00001F00F0E011602380F0B0A0DF350012433
:1015C0001200A7EC0AF00CC0C9FFA7EC0AF0120049
:1015D000A7EC0AF0C5841200A7EC0AF0C58012003F
:0A15E000A7EC0AF0C5821200120009
:020000040020DA
:08000000FFFFFFFFFFFFFFFF00
:020000040030CA
:0E00000000091F1EFF0181FF0FC00FE00F401F
:00000001FF
