:020000040000FA
:0400000003EF07F013
:100800000054696D653A00446174653A000020EE59
:1008100031F010EE10F0080EDBCFE3FFE806FCE24B
:1008200020EE28F010EE19F0080EDBCFE3FFE8060B
:10083000FCE2720ED36ED3EC06F018EC07F028EC55
:1008400007F0220E036E230E046E240E056EDFECFD
:1008500005F0250E036E260E046E270E056E0CECB9
:1008600006F022C001F0026A000E046E0A0E036E4A
:10087000F6EC04F00150300F106E22C001F0026A55
:10088000000E046E0A0E036E58EC05F00150300F96
:10089000116E23C001F0026A000E046E0A0E036E90
:1008A000F6EC04F00150300F136E23C001F0026A21
:1008B000000E046E0A0E036E58EC05F00150300F66
:1008C000146E24C001F0026A000E046E0A0E036E5C
:1008D000F6EC04F00150300F166E24C001F0026AED
:1008E000000E046E0A0E036E58EC05F00150300F36
:1008F000176E25C001F0026A000E046E0A0E036E28
:10090000F6EC04F00150300F196E25C001F0026AB8
:10091000000E046E0A0E036E58EC05F00150300F05
:100920001A6E26C001F0026A000E046E0A0E036EF3
:10093000F6EC04F00150300F1C6E26C001F0026A84
:10094000000E046E0A0E036E58EC05F00150300FD5
:100950001D6E27C001F0026A000E046E0A0E036EBF
:10096000F6EC04F00150300F1F6E27C001F0026A50
:10097000000E046E0A0E036E58EC05F00150300FA5
:10098000206E000E056E070E066E0650D8A4080EE7
:10099000076E000E8BEC06F0060E056E190E066E45
:1009A000076A000E8BEC06F0000E056E010E066E57
:1009B0000650D8A4080E076E010E8BEC06F0060E4A
:1009C000056E100E066E076A010E8BEC06F0060E21
:1009D0000F6E130E0E6EAE0EE82EFED70E2EFCD747
:1009E0000F2EFAD721EF04F000EF00F0000E066E94
:1009F00004BEFFEF04F0FDEF04F005EF05F0036C1B
:100A0000041ED8B0042A010E066E02BE0CEF05F0DB
:100A10000AEF05F012EF05F0016C021ED8B0022AB1
:100A2000010E061A000E086E000E076E0350041029
:100A3000D8B41DEF05F01FEF05F047EF05F0010EEC
:100A4000056E27EF05F0D89003360436052A04AE6C
:100A50002CEF05F02EEF05F023EF05F0D8900736C8
:100A600008360350015C04500258D8A03AEF05F054
:100A70003CEF05F041EF05F00350015E0450025ACF
:100A80000780D89004320332052E2EEF05F0065071
:100A9000D8B44DEF05F04FEF05F053EF05F0076CBC
:100AA000081ED8B0082A07C001F008C002F01200E2
:100AB000000E066E02BE61EF05F05FEF05F067EF16
:100AC00005F0016C021ED8B0022A010E066E04BEAB
:100AD0006EEF05F06CEF05F072EF05F0036C041E8D
:100AE000D8B0042A03500410D8B479EF05F07BEF96
:100AF00005F09FEF05F0010E056E83EF05F0D8902D
:100B000003360436052A04AE88EF05F08AEF05F0B7
:100B10007FEF05F00350015C04500258D8A093EF1A
:100B200005F095EF05F099EF05F00350015E0450D4
:100B3000025AD89004320332052E8AEF05F006508F
:100B4000D8B4A5EF05F0A7EF05F0ABEF05F0016C09
:100B5000021ED8B0022A01C001F002C002F0120049
:100B6000C6EF05F003C0F6FF04C0F7FFF86A070EF2
:100B7000F76403D00800F55005D0F6CFE9FFF7CFB2
:100B8000EAFFEF5037EC06F0034A042A03C0F6FFF1
:100B900004C0F7FFF86A070EF76403D00800F550A9
:100BA00005D0F6CFE9FFF7CFEAFFEF500009D8A450
:100BB000DCEF05F0DEEF05F0B2EF05F012005AECC5
:100BC00007F0D00EEDEC06F0000EEDEC06F05AEC5E
:100BD00007F0D10EEDEC06F00550D96EDA6A010E81
:100BE000B4EC06F07F0B34EC07F0DF6E0450D96EE6
:100BF000DA6A010EB4EC06F034EC07F0DF6E035055
:100C0000D96EDA6A000EB4EC06F03F0B34EC07F054
:100C1000DF6E51EC07F012005AEC07F0D00EEDEC4D
:100C200006F0040EEDEC06F05AEC07F0D10EEDECF8
:100C300006F00350D96EDA6A010EB4EC06F034EC1B
:100C400007F0DF6E0450D96EDA6A010EB4EC06F0DC
:100C500034EC07F0DF6E0550D96EDA6A000EB4ECA2
:100C600006F034EC07F0DF6E51EC07F01200026E74
:100C700002C001F0F00E01168C500F0B01108C6EAB
:100C80008C808C8200008C92030E016E980EE82EF0
:100C9000FED7012EFCD702C001F00F0E0116013A5B
:100CA000F00E01168C500F0B01108C6E8C82000020
:100CB0008C92080E016ECA0EE82EFED7012EFCD7CC
:100CC0001200026E02C001F0F00E01168C500F0BE4
:100CD00001108C6E8C908C8200008C92030E016E41
:100CE000980EE82EFED7012EFCD702C001F00F0EA1
:100CF0000116013AF00E01168C500F0B01108C6E8C
:100D00008C8200008C92080E016ECA0EE82EFED76F
:100D1000012EFCD712000A6E0A50D8B492EF06F0EA
:100D200094EF06F09FEF06F005500F0B086E096A6E
:100D3000C00E08100B6E09500C6EA8EF06F005509F
:100D40000F0B086E096A800E08100B6E09500C6EAE
:100D50000BC00DF00D5061EC06F006C003F007C0AB
:100D600004F0B0EC05F01200016EC586C7A0BBEF21
:100D700006F0BDEF06F0B6EF06F0C9CF02F0015065
:100D8000D8B4C5EF06F0C8EF06F0C58AC9EF06F083
:100D9000C59AC588C5B8CFEF06F0D1EF06F0CAEF07
:100DA00006F002501200000E956E270E036EF50E2F
:100DB000E82EFED7032EFCD70000020E61EC06F0F1
:100DC000280E61EC06F0010E61EC06F00C0E61ECF1
:100DD00006F0060E61EC06F01200026E02C0C9FFBA
:100DE000C7B0F5EF06F0F7EF06F0F0EF06F0C5CF6D
:100DF00001F01F0E0116D8A400EF07F002EF07F074
:100E0000F7EF06F012007E0EF66E0E0EF76E000E75
:100E1000F86E00EE28F010EE12F00900F5CFEEFFAC
:100E2000E550E150FAE1000EF86E000107EF04F022
:100E300048EC07F05AEC07F0D00EEDEC06F0000E8F
:100E4000EDEC06F0000EEDEC06F051EC07F01200B0
:100E5000010E61EC06F0060E036E300EE82EFED792
:100E6000032EFCD700D01200026E02C001F00F0E5C
:100E7000011602380F0B0A0DF35001241200303016
:100E80002F30302F30300030303A30303A303000B0
:100E900093809382280EC66E130EC86E800EC76EA6
:100EA0001200C584C5B457EF07F059EF07F052EFB1
:100EB00007F01200C580C5B060EF07F062EF07F0E1
:060EC0005BEF07F01200D9
:020000040020DA
:08000000FFFFFFFFFFFFFFFF00
:020000040030CA
:0E00000000091F1EFF0181FF0FC00FE00F401F
:00000001FF
